:400000000080002011000000090600000906000008B5044B1A6803F53F5302331A6000F013FB00BFFA46004010B5054C237833B9044B13B10448AFF300800123237010BD4B
:400040004881FF1F00000000A81C0000084B10B51BB108490848AFF300800848036803B910BD074B002BFBD0BDE81040184700BF000000004C81FF1FA81C0000C880FF1F7A
:400080000000000038B500F0E3F800F0ABFC204B204A92E803001860197100F0F5F804461B4D03461C4A8021284601F0CBF9284600F0B2FC013C032C20D8DFE804F0020965
:4000C0001019134B154A92E80300186099801AE00F4B134A92E8030083E8030013E00C4B104A92E8030018609980090C99710AE00D4A074B07CA03C31A8004E00B4A044B53
:4001000007CA03C31A80024800F086FCC5E700BF6481FF1FAC1C0000B41C0000B81C0000C01C0000C81C0000D01C0000DC1C000010B500F01FFB00F09FFB00F035FB074C88
:40014000636842F2107202FB03002060012000F0C9FC00F011FC0123A36010BDE481FF1F08B500F0F9FA024A53680133536008BDE481FF1F08B562B600F034FC034800F02E
:40018000EDFB034800F0DAFA08BD00BF310100006101000008B5002000F0A4FC012000F0ADFA012000F088FC002000F0A7FA074B00229A605A6000F049FB054800F0CEFB63
:4001C000044800F0BBFA00F0A1FB08BDE481FF1F310100006101000010B50446002000F02DFC012000F036FC722C08D1002000F03DFC002000F046FCFFF7CCFF1FE0672CB6
:4002000008D1012000F032FC012000F03BFCFFF7C1FF14E0622C08D1002000F027FC012000F030FCFFF7B6FF09E0632C07D1012000F01CFC002000F025FCFFF7ABFF034B9A
:400240009B68002BFBD0014B186810BDE481FF1F08B5FFF78FFFFFF79DFF7220FFF7BCFF064B18606720FFF7B7FF054B18606220FFF7B2FF034BD860002008BD0482FF1F57
:400280000082FF1FE481FF1F2DE9F04F83B0FFF771FFFFF77FFF4FF00009CA46CB467220FFF79AFF80466720FFF796FF04466220FFF792FF0546404600F074FD06460F4631
:4002C000374B186800F06EFD31A3D3E9002300F0DFFD02460B463046394601F069F848B1A045DCD9A845DAD90BF1010BBBF1020FD5D145E0204600F055FD06460F46294BC2
:40030000186800F04FFD22A3D3E9002300F00EFC02460B463046394601F04AF890B3284600F040FDCDE900011BA3D3E9002300F0AFFD02460B463046394601F039F828B14B
:400340000AF1010ABAF1020FA9D11DE0164BD86800F028FD0EA3D3E9002300F099FD02460B46DDE9000101F023F8002897D0AC4295D209F10109B9F1020F90D1032004E001
:40038000012002E0042000E0022003B0BDE8F08F9A9999999999F13FCDCCCCCCCCCCEC3F0482FF1F0082FF1FE481FF1FFEE700BFF0B40022174611E050F82760F3B226F079
:4003C000FF0608E001EB420511F812406D78A5550132013BDBB2002BF4D10137152FEBD9F0BC7047064B1B78DBB203F00701054A11701B09013213704422034B1A70704709
:40040000CF0100496E5800407658004008B50A46002101F00EF808BD38B53322284B1A801823284A1370EF2227490A8002310B7002310A80254A13700222254B1A70082276
:400440004FF040231A70032103F500731970214B1B78DBB220490B70204B1A8041F25122023B1A80002419250CE01D4B1B7803F0010343EA440404F003044FF4F07000F003
:400480003FFB013D0DB1032CEFD115B90320FFF78DFF144B4FF480721A8007221A70002211490A704820023108701A700222033B1A700E4A137843F00703137038BD00BFED
:4004C0008040004082400040844000408A4000400043004008010049A146004022420040254200400440004006400040A243004008B500F093FF08BD38B572B6334A137855
:4005000043F00403137000240CE0314D630019194A0011462A44084691882858FFF776FF0134E4B2072CF0D900240BE02848A20011194B0003441A8F596B186BFFF7D8FF19
:400540000134E4B2012CF1D922494FF09040FFF72FFF214A137843F0020313701032137843F0020313701D4C237843F040032370A2F58632513A137843F0100313700A227B
:4005800017491848FFF7B4FF0A2217491748FFF7AFFF082216491748FFF7AAFF164A137843F008031370154D61232B70FFF734FF81232B700122124B1A70FFF713FF0E22E5
:4005C00021461048FFF794FF38BD00BFE8460040E81C00005800004803500140A043004020050048005100402C050048C05100403805004812510040224300400048004019
:4006000004000840B043004008B500F0DBFE03680C2B00D1FEE7FEE708B5094B1A681044084BC31A802B02DC054B186005E000F0C9FE0C2303604FF0FF32104608BD00BF98
:40064000CC80FF1F9082FF1F08B5104E104D16E029686B68AC68002204E051F8040B43F8040B0432A242F8D1E868002203E0002143F8041B04328242F9D11035013E002E29
:40068000E6D100F0A5FEFFF7FDFCFEE701000000881D000008B5104A104B1A60104A136843F40073136000230AE0032B03D80D4A52F8231000E00C490C4A42F82310013382
:4006C0002F2BF2D90A4B1A780A4B1A70074A0A4B1A60FFF711FF08BD0004FA050CED00E014ED00E000000000090600000080FF1FBC760040C080FF1F08ED00E0014B187041
:40070000704700BF72640040014B1B681864704708ED00E04001C0B2014B1870704700BF00E400E00122014B1A60704700E100E00122014B1A60704780E100E010B5044644
:40074000FFF7F6FF2046FFF7DFFF0720FFF7E2FFFFF7E8FF10BD00BF0122014B1A60704780E200E0024A137843F080031370704773640040024A137803F07F0313707047A7
:4007800073640040014B1870704700BF83640040014B1878704700BF63640040014B1880704700BF04680040024B1B78024B188880B270470264004084680040014B1888DE
:4007C00080B2704784680040014B1880704700BF44680040014B1880704700BF6468004008B501E0FFF7EAFFFFF7D2FF10F0400FF8D108BD08B5134A137803F0F80343F051
:4008000001031370137803F0FC031370FFF7E8FF42F21070FFF7D8FF0020FFF7BFFF0C20FFF7B0FFFFF7B4FF8020FFF7D3FF00F06FF9054A137843F01003137000F06CF9CD
:4008400008BD00BF736400409364004008B5054B1B7823B9FFF7CEFF0122024B1A70FFF781FF08BDF481FF1F024A137843F080031370704775640040024A137803F07F0373
:400880001370704775640040014B1870704700BF85640040014B1878704700BF65640040014B1880704700BF48680040014B188880B2704788680040014B1880704700BF6E
:4008C0000868004008B501E0FFF7F0FFFFF7E2FF10F0080FF8D108BD08B542F20F70FFF7DFFF42F20F70FFF7E7FF00F011F9064A137843F01003137000F00EF9FFF7E2FF0A
:400900000120FFF7C1FF08BD9564004008B5054B1B7823B9FFF7E0FF0122024B1A70FFF7A3FF08BDF581FF1F014B1B685864704708ED00E04001C0B2014B1870704700BF92
:4009400001E400E00222014B1A60704700E100E00222014B1A60704780E100E010B50446FFF7F6FF2046FFF7DFFF0720FFF7E2FFFFF7E8FF10BD00BF0222014B1A60704732
:4009800080E200E07222074B1A700023064A137006215E3A11704721103211704F321370704700BF886500408965004010B500F0AFF804460A4A137843F0200313700132BE
:4009C000137843F0100313700132137843F01003137000F063F8204600F09EF810BD00BF9865004008B5054B1B7823B9FFF7CAFF0122024B1A70FFF7D9FF08BDF681FF1FBF
:400A0000034B1B7813F0040FFAD1024B187070476A6500404A65004038B5074B1B782BB938BDFFF7EDFF0134A4B201E005460024285D0028F5D138BDF681FF1F044A13782C
:400A400003F0FE0300F0010018431070704700BF00510040044A137803F0BF03800100F0400018431070704700510040044A137803F0F703C00000F008001843107070473D
:400A800000510040044A137803F0EF03000100F0100018431070704700510040054A137843F0010313701032137843F001031370704700BFA243004010B5044605E0084BC6
:400AC000186800F01DF8A4F50044B4F5004FF6D8034B586800FB04F000F012F810BD00BFD080FF1F044A137803F07F03C001C0B218431070704700BF00510040000000007A
:400B00000230800803D000BF01380046FCD17047EFF3108072B6704780F31088704700BF81F0004102E000BF83F0004330B54FEA41044FEA430594EA050F08BF90EA020FC3
:400B40001FBF54EA000C55EA020C7FEA645C7FEA655C00F0E2804FEA5454D4EB5555B8BF6D420CDD2C4480EA020281EA030382EA000083EA010180EA020281EA0303362D96
:400B800088BF30BD11F0004F4FEA01314FF4801C4CEA113102D0404261EB410113F0004F4FEA03334CEA133302D0524263EB430394EA050F00F0A780A4F10104D5F1200E9F
:400BC0000DDB02FA0EFC22FA05F2801841F1000103FA0EF2801843FA05F359410EE0A5F120050EF1200E012A03FA0EFC28BF4CF0020C43FA05F3C01851EBE37101F00045B9
:400C000007D54FF0000EDCF1000C7EEB00006EEB0101B1F5801F1BD3B1F5001F0CD349085FEA30004FEA3C0C04F101044FEA445212F5800F80F09A80BCF1004F08BF5FEAD7
:400C4000500C50F1000041EB045141EA050130BD5FEA4C0C404141EB010111F4801FA4F10104E9D191F0000F04BF01460020B1FA81F308BF2033A3F10B03B3F120020CDAAF
:400C80000C3208DD02F1140CC2F10C0201FA0CF021FA02F10CE002F11402D8BFC2F1200C01FA02F120FA0CFCDCBF41EA0C019040E41AA2BF01EB0451294330BD6FEA0404C0
:400CC0001F3C1CDA0C340EDC04F11404C4F1200220FA04F001FA02F340EA030021FA04F345EA030130BDC4F10C04C4F1200220FA02F001FA04F340EA0300294630BD21FAFA
:400D000004F0294630BD94F0000F83F4801306BF81F480110134013D4EE77FEA645C18BF7FEA655C29D094EA050F08BF90EA020F05D054EA000C04BF1946104630BD91EA4D
:400D4000030F1EBF0021002030BD5FEA545C05D14000494128BF41F0004130BD14F580043CBF01F5801130BD01F0004545F0FE4141F470014FF0000030BD7FEA645C1ABFFD
:400D8000194610467FEA655C1CBF0B46024650EA013406BF52EA033591EA030F41F4002130BD00BF90F0000F04BF0021704730B54FF4806404F132044FF000054FF00001C4
:400DC00050E700BF90F0000F04BF0021704730B54FF4806404F1320410F0004548BF40424FF000013EE700BF42004FEAE2014FEA31014FEA02701FBF12F07F4393F07F4F43
:400E000081F06051704792F0000F14BF93F07F4F704730B54FF4607401F0004521F0004120E700BF50EA010208BF704730B54FF000050AE050EA010208BF704730B511F0B4
:400E4000004502D5404261EB41014FF4806404F132045FEA915C3FF4DCAE4FF003025FEADC0C18BF03325FEADC0C18BF033202EBDC02C2F1200300FA03FC20FA02F001FAA2
:400E800003FE40EA0E0021FA02F11444C1E600BF70B54FF0FF0C4CF4E06C1CEA11541DBF1CEA135594EA0C0F95EA0C0F00F0DEF82C4481EA030621EA4C5123EA4C5350EA12
:400EC000013518BF52EA033541F4801143F4801338D0A0FB02CE4FF00005E1FB02E506F00042E0FB03E54FF00006E1FB03569CF0000F18BF4EF0010EA4F1FF04B6F5007F71
:400F000064F5407404D25FEA4E0E6D4146EB060642EAC62141EA55514FEAC52040EA5E504FEACE2EB4F1FD0C88BFBCF5E06F1ED8BEF1004F08BF5FEA500E50F1000041EB6B
:400F4000045170BD06F0004646EA010140EA020081EA0301B4EB5C04C2BFD4EB0C0541EA045170BD41F480114FF0000E013C00F3AB8014F1360FDEBF002001F0004170BD15
:400F8000C4F10004203C35DA0C341BDC04F11404C4F1200500FA05F320FA04F001FA05F240EA020001F0004221F0004110EBD37021FA04F642EB06015EEA430E08BF20EA5B
:400FC000D37070BDC4F10C04C4F1200500FA04F320FA05F001FA04F240EA020001F0004110EBD37041F100015EEA430E08BF20EAD37070BDC4F1200500FA05F24EEA020E35
:4010000020FA04F301FA05F243EA020321FA04F001F0004121FA04F220EA020000EBD3705EEA430E08BF20EAD37070BD94F0000F0FD101F00046400041EB010111F4801F59
:4010400008BF013CF7D041EA060195F0000F18BF704703F00046520043EB030313F4801F08BF013DF7D043EA0603704794EA0C0F0CEA135518BF95EA0C0F0CD050EA41066E
:4010800018BF52EA4306D1D181EA030101F000414FF0000070BD50EA410606BF1046194652EA430619D094EA0C0F02D150EA013613D195EA0C0F05D152EA03361CBF1046E5
:4010C00019460AD181EA030101F0004141F0FE4141F470014FF0000070BD41F0FE4141F4780170BD70B54FF0FF0C4CF4E06C1CEA11541DBF1CEA135594EA0C0F95EA0C0F65
:4011000000F0A7F8A4EB050481EA030E52EA03354FEA013100F088804FEA03334FF0805545EA131343EA12634FEA022245EA111545EA10654FEA00260EF000419D4208BF21
:40114000964244F1FD0404F5407402D25B084FEA3202B61A65EB03055B084FEA32024FF480104FF4002CB6EB020E75EB030E22BFB61A754640EA0C005B084FEA3202B6EBA1
:40118000020E75EB030E22BFB61A754640EA5C005B084FEA3202B6EB020E75EB030E22BFB61A754640EA9C005B084FEA3202B6EB020E75EB030E22BFB61A754640EADC0034
:4011C00055EA060E18D04FEA051545EA16754FEA06164FEAC30343EA52734FEAC2025FEA1C1CC0D111F4801F0BD141EA00014FF000004FF0004CB6E711F4801F04BF014394
:401200000020B4F1FD0C88BFBCF5E06F3FF6AFAEB5EB030C04BFB6EB020C5FEA500C50F1000041EB045170BD0EF0004E4EEA113114EB5C04C2BFD4EB0C0541EA045170BD2F
:4012400041F480114FF0000E013C90E645EA060E8DE60CEA135594EA0C0F08BF95EA0C0F3FF43BAF94EA0C0F0AD150EA01347FF434AF95EA0C0F7FF425AF104619462CE79B
:4012800095EA0C0F06D152EA03353FF4FDAE1046194622E750EA410618BF52EA43067FF4C5AE50EA41047FF40DAF52EA43057FF4EBAE12E74FF0FF3C06E000BF4FF0010C48
:4012C00002E000BF4FF0010C4DF804CD4FEA410C7FEA6C5C4FEA430C18BF7FEA6C5C1BD001B050EA410C0CBF52EA430C91EA030F02BF90EA020F0020704710F1000F91EAF0
:40130000030F58BF994208BF90422CBFD8176FEAE37040F0010070474FEA410C7FEA6C5C02D150EA013C07D14FEA430C7FEA6C5CD6D152EA033CD3D05DF8040B704700BF71
:401340008446104662468C461946634600E000BF01B5FFF7B7FF002848BF10F1000F01BD4DF808EDFFF7F4FF0CBF012000205DF808FB00BF4DF808EDFFF7EAFF34BF01205A
:4013800000205DF808FB00BF4DF808EDFFF7E0FF94BF012000205DF808FB00BF4DF808EDFFF7CEFF94BF012000205DF808FB00BF4DF808EDFFF7C4FF34BF012000205DF818
:4013C00008FB00BF014B1868704700BF4081FF1F0E4B70B51E460E4C0025E41AA410A54204D056F8253098470135F8E700F0BAFC084B094C1E46E41AA4100025A54204D061
:4014000056F8253098470135F8E770BD701D0000701D0000701D0000781D000010B5431E0A44914204D011F8014B03F8014FF8E710BD03460244934202D003F8011BFAE717
:40144000704700000CB430B5164B0C1E9DB01D6804DA8B232B604FF0FF301EE04FF40273ADF814300CBF234604F1FF33049307934FF6FF7302900690ADF81630209A21ABB3
:4014800002A92846019300F069F8431CBCBF8B232B6014B1029B00221A701DB0BDE8304002B070474081FF1F2DE9F0478E6882469E420C46914698463ED88A8912F4906FC3
:4014C0003AD02568096902236F1A656905EB450595FBF3F57B1C43449D4238BF1D4653050FD5294600F040FB064698B13A462169FFF794FFA38923F4906343F08003A38150
:4015000013E02A4600F08EFB064670B92169504600F0DEFA0C23CAF80030A3894FF0FF3043F04003A381BDE8F08726613E44266046466561ED1BA560464528BF4646494686
:401540003246206800F0A8FAA36800209B1BA36023681E442660BDE8F08700002DE9F04F9DB003938B8980461C060D4616460DD50B695BB9402100F0F7FA2860286118B9F5
:401580000C23C8F80030CDE040236B610023099320238DF82930DFF89CB130238DF82A3037463C4614F8013B1BB9B7EB060910D003E0252BF9D02746F3E74B463246294693
:4015C0004046FFF771FF013000F0A780099B4B4409933B78002B00F0A08000234FF0FF3204930793059206938DF853301A930126052221784E4800F041FA671C049B38B19E
:401600004B4A3C46801A06FA00F018430490EFE7D90644BF20228DF853201A0744BF2B228DF8532022782A2A03D0079A00210A200BE0039A111D12680391002A10DA5242A6
:4016400043F00200079204900BE027463B780134303B092B03D800FB02320121F5E701B107923B782E2B1ED17B782A2B0AD1039B02371A1D1B680392002BB8BF4FF0FF337F
:40168000059310E0002319460593781C0A2407463A780130303A092A03D804FB01210123F5E703B1059103223978224800F0E6F940B14023CBEB000003FA00F0049B0137D6
:4016C00018430490397806221B487E1C8DF8281000F0D4F988B1194B33B9039B073323F007030833039314E003AB00932A46144B04A94046AFF3008007E003AB00932A466B
:401700000F4B04A9404600F093F8B0F1FF3F824603D0099B5344099342E7AB895B0601D4099801E04FF0FF301DB0BDE8F08F00BF2E1D0000341D0000381D0000000000002C
:40174000A91400002DE9F04791461F460A698B6806469342B8BF1346C9F8003091F843200C46DDF8208012B10133C9F800302368990642BFD9F800300233C9F80030256861
:4017800015F0060510D104F1190A07E00123524639463046C04701301AD00135E368D9F800209B1A9D42F1DB94F843302268003318BF012392060FD5E118302081F843005C
:4017C0005A1C94F845102244023382F8431003E04FF0FF30BDE8F08704F1430239463046C0470130F4D02268D9F80050E36802F00602042A08BF5D1B2269A3680CBF25EAC5
:40180000E57500259342C4BF9B1AED184FF000091A344D4509D00123224639463046C0470130D5D009F10109F3E70020BDE8F0872DE9F04317460A7E85B06E2A9846064679
:401840000C460C9B01F1430E00F0AE8011D8632A22D009D8002A00F0BB80582A40F0CA8081F84520834955E0642A1ED0692A1CD0C0E0732A00F0B08009D86F2A2ED0702A2B
:4018800040F0B8800A6842F020020A603EE0752A24D0782A3AD0ADE01A6801F14205111D1960136884F84230A8E021681A6811F0800F02D0111D196008E011F0400F02F114
:4018C0000401196002D0B2F9003000E01368002B3CDA2D225B4284F8432037E021681A6811F0800F02D0111D196007E011F0400F02F10401196001D0138800E01368227E1C
:401900005C496F2A14BF0A2208221BE078225A4984F845202268186812F0800F00F104051D6003D1550601D5038800E00368D00744BF42F0200222601BB9226822F02002F8
:4019400022601022002084F8430001E049490A226568002DA56008DB206820F0040020602BB9002D7DD175460CE0002B79D07546B3FBF2F002FB1033CB5C05F8013D034687
:401980000028F5D1082A0BD12368DA0708D5236962689A42DEBF302305F8013C05F1FF35C5EB0E0323612EE008681A6810F0800F496903D0101D1860136808E010F0400FAC
:4019C00002F104001860136801D0198000E0196000232361754616E01A68111D1960156800216268284600F049F808B1401B6060636804E004F1420584F84220012323616D
:401A0000002384F84330CDF800803B4603AA21463046FFF797FE013002D14FF0FF3026E023692A4639463046C0470130F5D023689B0710D5002504F1190907E001234A466A
:401A400039463046C0470130E7D00135E368039A9B1A9D42F2DBE068039B9842B8BF184605E00B7804F1420584F842308AE705B0BDE8F0833F1D0000501D000010B5C9B295
:401A800002449042034605D01C7801308C42F8D1184610BD002010BD884210B501EB020301D8421E0BE09842FBD28118D21AD34204D013F8014D01F8014DF8E710BD99429C
:401AC00004D011F8014B02F8014FF8E710BD000038B50546002944D051F8043C0C1F002BB8BFE41800F0D4F81E4A1368114613B96360146030E0A3420DD92268A018834225
:401B000001BF18685B681218226063600C6023E0A24203D813465A68002AF9D118681918A1420BD12168014458188242196013D110685268014419605A600DE002D90C2386
:401B40002B6009E021686018824201BF106852680918216062605C602846BDE8384000F098B838BDFC81FF1F70B5CD1C25F0030508350C2D38BF0C25002D064601DBA942B6
:401B800002D90C23336046E000F082F8234B1C681A462146A1B10B685B1B0ED40B2B03D90B60CC18CD501EE08C420BBF63684B681360636018BF0C4615E00C464968E9E769
:401BC000174C23681BB9304600F052F820602946304600F04DF8431C18D0C41C24F00304A0420DD12560304600F053F804F10B00231D20F00700C31A0ED05A42E25070BD94
:401C0000211A304600F034F80130EBD10C233360304600F03EF8002070BD00BFFC81FF1FF881FF1FF8B5074615460E4621B91146BDE8F840FFF798BF1AB9FFF749FF2846CB
:401C4000F8BD00F027F885420ED929463846FFF78BFF044650B131462A46FFF7DFFB31463846FFF735FF01E03046F8BD2046F8BD38B5064C0023054608462360FEF7CCFC02
:401C8000431C02D1236803B12B6038BD8C82FF1F7047704751F8040C0028BEBF091851F8043CC01804387047000000004D41494E00000000256400005245440A0D00000086
:401CC000475245454E0A0D00424C55450A0D0000554E4B4E4F574E0A0D00000044454641554C540A0D000000205100405000F051004010000000014000100014014000047E
:401D000080180140800300400140000A004C014000020050014020006052004098040048060000180140A004004880004300232D302B2000686C4C00656667454647003079
:401D4000313233343536373839414243444546003031323334353637383961626364656600000000F8B500BFF8BC08BC9E4670474D00000095060000F8B500BFF8BC08BC44
:401D80009E46704729000000981D0000C880FF1F8000000048010000000000009082FF1F0000E02EC05D00001800000000366E010000000000000000000000000000000063
:401DC000000000000000000000000000000000002C1D000000000000000000000000000000000000000000000000000000000000000000000000000000000000000000009A
:401E000000000000000000000000000000000000E080FF1F000000000000000000000000000000000000000000000000000000000000000000000000000000000000000024
:401E40000000000000000000000000000000000000000000000000000000000000000000000000000000000000000000000000000000000000000000000000000000000062
:401E80000000000000000000000000000000000000000000000000000000000000000000000000000000000000000000000000000000000000000000000000000000000022
:401EC00000000000000000000000000000000000000000000000000000000000000000000000000000000000000000000000000000000000000000000000000000000000E2
:401F000000000000000000000000000000000000000000000000000000000000000000000000000000000000000000000000000000000000000000000000000000000000A1
:020000040003F7
:0200000480007A
:4000000003640040036500400101014056020140350301403E0401402E050140040A0140040B0140011701400F180140361901406C1A0140471B01400640014004410140BE
:40004000064201400143014003480140074D0140055001400151014072018367850D887289388A0F8701010407010B0111071B022B013104330339023F014051410249FFE1
:400080004AFF4BFF4DA04F01501859045A045B045C205D015F016040628064406540668068406A506BA86C406D206E506FA886048C028F06910492049E03A804AB01B001FE
:4000C000B102B202B301B604B704BE44BF40C014C106C502C6C5C70EC81FC9FFCAFFCBFFCDAFCE07CF01D018D280D407D804D904DA04DB04DC11DD11DF05E040E280E4405A
:40010000E540E680E840EA50EBA8EC40ED20EE50EFA8021003020A400B011208180119041B4321022248244027602A102F083102372138803C043E203F01404146044740BA
:4001400048084A104B014F8050405108522059245A805D205E20610862206C026D406F0172407940A701C005C209C402CA24CCA1CEE8D039D214D60ED806DE0840234105DD
:4001800049FF4AFF4BFF4F0150185A045D025F016040624064406540668068806A806C806E80820F84028B019801A007A404A807AB01B101B208B407BF01C023C104C5EC4C
:4001C000C620C80BC9FFCAFFCBFFCD83CE03CF01D018D280D401D604D804D904DA04DB04DC02DD22DF05E040E240E440E540E680E880EA80EC80EE8005050E0416201721B3
:400200001C041D041E041F0824402F083E204004422043104620471148024A024D044F0156205C405D045F01674075017E02874094049B219E20A002A708AE10B408B6047F
:40024000C030C240C470CA20CE20D0E6D208D6D0D880DE10B880BE40D804DF011C019401B401EE10E204820186019202A602AB01B401B501B602BE50D418D604D804D90425
:40028000DB04DF01000A040C052109010C100E290F40102016811728180119101C161D01222025012614270629202C102DA02E813541362037083C043E223F404501471460
:4002C0004C244E024F4054045B025C106001611063806D946E10762377288340C07CC2F8C4F4CAF4CCF0CEF0D0E0D230D621D80D02200308041C0622081009730B0C0C09B6
:400300000D800E100F151014142C157316111704188019031A031B042040252A2620274428302A0C302031C032403330341F350F3680390A3B203E453F044021410345EC45
:40034000460B480749FF4AFF4BFF4EF04F44500C5401580459045A045B045F0166C06A406B02810482038309841C851C8603891C8A088C808D108E4094019508960E9705ED
:4003800098019A169C409EA0A020A240A302A4E0A8E0AE1CB110B21AB303B40FB50CB6E0BA28BF04C002C704C9FFCA07CBFFCC40CD20CEF0CF05D008D804D904DA04DF01F1
:4003C000E040E1A8E240E32000400244032004040580064409080A040B800D180E0110201280131014801514178019041A461C041D081E011FA02040211123A0260227183C
:400400002B202F8030303108370839A23A403B103D863E1041584720482049014A8053405644581059055A40860189808B088C808D219114921096019DA09F10A140A60200
:40044000B140B210C0FFC2EEC4FECA82CC46CEFDD02ED60FE4023002314036408540CC70E6100D02A402A640C2208640A402A640AD02E640E840A4028002A402E2201220C8
:40048000740484048E20C408DE04E208000608060A0410011C01003F80800000400000001F10600073E70C1801180000000000E6001923E27F0800001C00630103FF0000F4
:4004C00002C00000043900C40C410000088000002C38101F0F0040C0800022280000040065030400020C000E11FFFFFF62A0F0410C000000000002110404040400000001FB
:4005000000000000000040020010301000101012000000000000000000000000000000006100A0595900000000000000800040808000800000000000000B0B0000000000EE
:40054000000000000000000000000000000000000000000000000000000000000000000000000000000000000000000000000000000000000000000000000000000000007B
:40058000000000000000000000000000000000000000000000000000000000000000000000000000000000000000000000000000000000000000000000000000000000003B
:4005C00000000000000000000000000000000000000000000000000000000000000000000000000000000000000000000000000000000000000000000000000000000000FB
:4006000000000000000000000000000000000000000000000000000000000000000000000000000000000000000000000000000000000000000000000000000000000000BA
:0200000490006A
:0400000000004005B7
:0200000490105A
:04000000BC90ACAF55
:0200000490303A
:02000000FB56AD
:0200000490402A
:4000000000000000000000000000000000000000000000000000000000000000000000000000000000000000000000000000000000000000000000000000000000000000C0
:400040000000000000000000000000000000000000000000000000000000000000000000000000000000000000000000000000000000000000000000000000000000000080
:400080000000000000000000000000000000000000000000000000000000000000000000000000000000000000000000000000000000000000000000000000000000000040
:4000C0000000000000000000000000000000000000000000000000000000000000000000000000000000000000000000000000000000000000000000000000000000000000
:0200000490501A
:0C00000000012E16106900012E230BBF1A
:00000001FF