:400000000080002011000000290900002909000008B5044B1A6803F53F5302331A6000F08BFC00BFFA46004010B5054C237833B9044B13B10448AFF300800123237010BD8C
:400040004081FF1F0000000094210000084B10B51BB108490848AFF300800848036803B910BD074B002BFBD0BDE81040184700BF000000004481FF1F94210000C880FF1FA8
:40008000000000000000000070B504460D4608213B4801F007FA012C6DD100F0C1F84FF47A7001F035F8002400F0C2F90646A54207D100F0E1F84FF47A7001F029F800257A
:4000C0002DE0032C2BD100F0D7F840F6B83001F01FF8012001F026FA4FF4FA7001F018F8002001F01FFA02E00122254B1A7000F0CFF801F0A9FC20A3D3E9002301F06AFF91
:400100000028F1D100221E4B1A7070BD00F0B4F81C4B1B681D2BF9DD00F082F810E0012E0ED1F5E700F0A8F8164B1B681D2BF9DD00F076F801344FF4FA7000F0E9FF0BE016
:40014000022E09D1F0E700F097F80E4B1B681D2BF9DD00F087F80BE0032E09D1F5E700F08BF8084B1B681D2BF9DD00F071F89BE7042E99D1F5E770BDBE9F1A2FDD24D63F41
:400180005C81FF1F8081FF1F08B50138052827D8DFE800F003090F151B21012211461046FFF772FF08BD022201210846FFF76CFF08BD032201210846FFF766FF08BD012252
:4001C00002211046FFF760FF08BD022211460120FFF75AFF08BD032202210120FFF754FF08BD00BF08B562B600F014F800F04AF800F094F800F0F4F900F09CF940F6B83087
:4002000000F086FF00F0F6F800F09EF9FFF7BCFFFAE700BF08B500F05BFC00F00BFF08BD08B5012000F0E2FB002000F091FE002000F00EFF012000F017FF00F049FC00F01D
:40024000F9FE642000F0ACFE642000F0F7FB08BD08B500F03DFC00F08FFE642000F0EEFB08BD00BF08B500F0D5FB00F0E3FE642000F096FE08BD00BF08B500F0CBFB00F0BD
:400280007BFE08BD08B500F0E9FC00F0F5FC08BD08B5002000F0F8FC88B100F007FD80B201F0C0FB08A3D3E9002301F021FC08A3D3E9002301F068FA01F0DCFE08BD0020D7
:4002C00008BD00BFAFF30080FCA9F1D24D62403F8E06F0164850AC3F10B500F031FD00F0B1FD00F047FD074C636842F2107202FB03002060012000F0F3FE00F023FE012365
:40030000A36010BD6481FF1F08B500F00BFD024A53680133536008BD6481FF1F08B562B6034800F001FE034800F0EEFC08BD00BFD90200000903000008B5002000F0D0FE45
:40034000012000F0C1FC012000F0E2FE002000F0BBFC074B00229A605A6000F05DFD054800F0E2FD044800F0CFFC00F0B5FD08BD6481FF1FD90200000903000010B5044602
:40038000002000F07DFE012000F086FE722C08D1002000F08DFE002000F096FEFFF7CCFF1FE0672C08D1012000F082FE012000F08BFEFFF7C1FF14E0622C08D1002000F0EF
:4003C00077FE012000F080FEFFF7B6FF09E0632C07D1012000F06CFE002000F075FEFFF7ABFF034B9B68002BFBD0014B186810BD6481FF1F08B5FFF791FFFFF79DFF722016
:40040000FFF7BCFF064B18606720FFF7B7FF054B18606220FFF7B2FF034BD860002008BD8881FF1F8481FF1F6481FF1F000000002DE9F047FFF772FFFFF77EFF7220FFF7B7
:400440009DFF04466720FFF799FF05466220FFF795FF8246204601F0D5FA06460F46324B186801F0CFFA2CA3D3E9002301F040FB02460B463046394601F0CAFD20B1AC4205
:40048000DCD95445DAD93BE0284601F0BBFA06460F46264B186801F0B5FA1FA3D3E9002301F074F902460B463046394601F0B0FD48B3504601F0A6FA8046894618A3D3E981
:4004C000002301F015FB02460B463046394601F09FFDD8B9164BD86801F094FA0EA3D3E9002301F005FB02460B464046494601F08FFD0028A2D05545A0D20320BDE8F0877B
:400500000120BDE8F0870420BDE8F0870220BDE8F08700BFAFF300809A9999999999F13FCDCCCCCCCCCCEC3F8881FF1F8481FF1F6481FF1F08B50821024800F0CDFF00F03B
:400540007DFE08BD8C81FF1F08B500F087FF10F0100F38D000F0DAFF1F4B187000F084FF1E4B1B78012B30D11C4B5B78012B02D0022B14D02BE0194B9B78022B07D0032B62
:4005800009D0012B0BD100F0C7FF012008BD00F0C3FF022008BD00F0BFFF032008BD0F4B9B78022B07D0032B09D0012B11D100F0B3FF042008BD00F0AFFF052008BD00F006
:4005C000ABFF062008BD002008BD002008BD002008BD002008BD00BF9481FF1F8C81FF1F08B501F011F801F083F8024801F0A8F808BD00BF4906000010B501F02DF80446BF
:40060000C0F57F40FF3001F00DFA0BA3D3E9002301F06EFA01F006FD094B1860A4F57E40E338582802D84FF4FA721A60044B186810BD00BFAFF300809CC420B07268913F2D
:400640008081FF1F704700BF08B5FFF7D5FFFFF7F9FF024B186001F021F808BD8081FF1FFEE700BFF0B40022174611E050F82760F3B226F0FF0608E001EB420511F8124000
:400680006D78A5550132013BDBB2002BF4D101371A2FEBD9F0BC70470B4B1B78DBB203F007010A4A11701B09013213700222084B1A702023074A1370033213702D321370F5
:4006C0004422054B1A707047CF0100496E5800400D510040285B00407658004008B50A46002101F04EFD08BD08B501F03FFD08BD38B51722384B1A801823384A1370EF2203
:4007000037490A8002310B7002310A8002310B7002310A80334A137040F2DF1204310A8002310B7002310A802F4A137004222F492F48FFF7D9FF02222E4B1A7008224FF01D
:4007400040231A70032103F5007319702A4B1B78DBB22A490B702A4B1A8041F25122023B1A80002419250CE0264B1B7803F0010343EA440404F003044FF4F07000F0F0FF2A
:40078000013D0DB1032CEFD115B90320FFF768FF1D4B4FF480721A8007221A7000221B490A704820023108701A700222033B1A7004220A331A70164A137843F03F031370BD
:4007C000013A137843F001031370013A137843F08003137038BD00BF8040004082400040844000408E4000409640004018070048004100400043004008010049A1460040B8
:4008000022420040254200400440004006400040A243004038B572B6304A137843F00403137000240CE02E4D630019194A0011462A44084691882858FFF750FF0134E4B241
:40084000072CF0D927494FF09040FFF70BFF264A137843F0020313701032137843F002031370224C237843F040032370A2F58632513A137843F0100313700A221C491D4889
:40088000FFF732FF0A221C491C48FFF72DFF08221B491C48FFF728FF08221B491B48FFF723FF08221A491B48FFF71EFF1A4A137843F008031370194D61232B70FFF718FF9D
:4008C00081232B700122164B1A70FFF7E5FE0E2221461448FFF708FF38BD00BFE8460040982100006C00004803500140A0430040E806004800510040F4060048C051004042
:40090000000700481251004008070048225100401007004832510040224300400048004004000840B043004008B501F0F3FB03680C2B00D1FEE7FEE708B5104E104D16E0A6
:4009400029686B68AC68002204E051F8040B43F8040B0432A242F8D1E868002203E0002143F8041B04328242F9D11035013E002EE6D101F0D5FBFFF735FCFEE701000000A9
:40098000F021000008B5104A104B1A60104A136843F40073136000230AE0032B03D80D4A52F8231000E00C490C4A42F8231001332F2BF2D90A4B1A780A4B1A70074A0A4BA1
:4009C0001A60FFF727FF08BD0004FA050CED00E014ED00E000000000290900000080FF1FBC760040C080FF1F08ED00E0044A137803F0FB03800000F004001843107070479A
:400A000030510040024A137843F080031370704770640040024A137803F07F031370704770640040014B1870704700BF00640040014B1870704700BF40640040014B187090
:400A4000704700BF20640040014B1870704700BF80640040014B1878704700BF60640040014B1878704700BF5064004008B501E0FFF7F6FFFFF7EEFF10F0100FF8D108BD19
:400A800010B5114A137803F0C00343F0090313700E4C237843F0010323706420FFF7C2FF6420FFF7C5FF3220FFF7C8FF0020FFF7CBFF00F05DFE237843F01003237000F03D
:400AC0005BFEFFF7D3FF10BD706400409064004008B5054B1B7823B9FFF7D2FF0122024B1A70FFF78FFF08BD7481FF1F08B50A280FD00C2802D0082806D102E04FF4805255
:400B000009E04FF4807206E0002000F0FFFA002201E04FF480620021094B198042F2107303FB02F303F6C413064A82FB0302DB17C3EBE223044A1360044B198008BD00BF54
:400B40009881FF1FAD8BDB689C81FF1F9A81FF1F10B500F00DFE04461F4A137843F0020313701032137843F0020313701A3A137843F0010313701032137843F001031370EE
:400B800002F5AA521A32137803F0FE0343F0020313700422114B1A70013B1A7842F040021A701A7802F0FC021A70C822053B1A700222A3F59753123B1A70094A137843F096
:400BC000080313700A2000F0B9FA0822054B1A60204600F0D1FD10BDAB4300400E5900402F5B004080E200E010B504460A280DD00C2802D0082804D101E0C42207E0442297
:400C000005E0002000F082FAC42200E08422034B1A702046FFF76AFF10BD00BF0A59004008B5102000F068FA0721032000F0A4FA0749032000F08CFA064A137843F00603F3
:400C400013700C20FFF7D0FF0022034B1A8008BDC50C000009590040A081FF1F08B5054B1B7823B9FFF7DCFF0122024B1A70FFF76FFF08BD7581FF1F024A137843F00103ED
:400C8000137070470859004010B5074B1B7813F0010401D10028F8D024B1012000F04EFA014B1B78204610BD09590040034B188880B2034B1B88C01A00B27047A25B004072
:400CC0009A81FF1F704700BF014B1870704700BF77640040014B1B681864704708ED00E04001C0B2014B1870704700BF00E400E00122014B1A60704700E100E00122014B78
:400D00001A60704780E100E010B50446FFF7F6FF2046FFF7DFFF0720FFF7E2FFFFF7E8FF10BD00BF0122014B1A60704780E200E0024A137843F080031370704775650040E3
:400D4000024A137803F07F031370704775650040014B1870704700BF85650040014B1878704700BF65650040014B1880704700BF086A0040024B1B78024B188880B2704741
:400D800004650040886A0040014B188880B27047886A0040014B1880704700BF486A0040014B1880704700BF686A004008B501E0FFF7EAFFFFF7D2FF10F0400FF8D108BD78
:400DC00008B5134A137803F0F80343F001031370137803F0FC031370FFF7E8FF42F21070FFF7D8FF0020FFF7BFFF0C20FFF7B0FFFFF7B4FF8020FFF7D3FF00F0B9FC054A9E
:400E0000137843F01003137000F0B6FC08BD00BF756500409565004008B5054B1B7823B9FFF7CEFF0122024B1A70FFF781FF08BD7681FF1F024A137843F080031370704794
:400E400077650040024A137803F07F031370704777650040014B1870704700BF87650040014B1878704700BF67650040014B1880704700BF4C6A0040014B188880B27047BB
:400E80008C6A0040014B1880704700BF0C6A004008B501E0FFF7F0FFFFF7E2FF10F0080FF8D108BD08B542F20F70FFF7DFFF42F20F70FFF7E7FF00F05BFC064A137843F0C5
:400EC0001003137000F058FCFFF7E2FF0120FFF7C1FF08BD9765004008B5054B1B7823B9FFF7E0FF0122024B1A70FFF7A3FF08BD7781FF1F014B1B685864704708ED00E094
:400F00004001C0B2014B1870704700BF01E400E00222014B1A60704700E100E00222014B1A60704780E100E010B50446FFF7F6FF2046FFF7DFFF0720FFF7E2FFFFF7E8FF9C
:400F400010BD00BF0222014B1A60704780E200E0044A137803F0F703C00000F0080018431070704730510040024A137843F080031370704771640040024A137803F07F0309
:400F80001370704771640040014B1870704700BF01640040014B1870704700BF41640040014B1870704700BF21640040014B1870704700BF81640040014B1878704700BFF4
:400FC00061640040014B1878704700BF5164004008B501E0FFF7F6FFFFF7EEFF10F0100FF8D108BD10B5114A137803F0C00343F0090313700E4C237843F001032370642026
:40100000FFF7C2FF6420FFF7C5FF3220FFF7C8FF0020FFF7CBFF00F0ABFB237843F01003237000F0A9FBFFF7D3FF10BD716400409164004008B5054B1B7823B9FFF7D2FF0C
:401040000122024B1A70FFF78FFF08BD7881FF1F044A137803F0EF03000100F0100018431070704730510040044A137803F0DF03400100F0200018431070704730510040B2
:40108000044A137803F0FE0300F0010018431070704700BF00510040044A137803F0BF03800100F0400018431070704700510040044A137803F0F703C00000F00800184355
:4010C0001070704700510040044A137803F0EF03000100F0100018431070704700510040044A137803F07F03C001C0B218431070704700BF00510040034B1A7800F0F8001B
:4011000010431870704700BF0241004001BE704710B5044605E0084B186800F021FBA4F50044B4F5004FF6D8034B586800FB04F000F016FB10BD00BFCC80FF1F08B5034BF0
:401140001B7A00FB03F000F00BFB08BDCC80FF1F70B504460E46074B1D681F2802D90020FFF7D4FF04F01F04103455F8240045F8246070BD08ED00E038B504460D460729D9
:4011800002D90020FFF7C2FF1F2C02D90020FFF7BDFF04F01F0000F1604000F564406D01EDB2057038BD00BF70B50122134B1A7081220E3B1A70082602331E700F25113303
:4011C0001D70002401331C704FF400420C4B1A6007212846FFF7D0FF0A492846FFF7B8FF1022094B1A70094B1C70094B1C70094B1C70304600F04EF970BD00BFD6490040B7
:4012000080E100E065120000A281FF1FA581FF1FA481FF1FA681FF1F08B500F0A9FA064A137843F0040313701032137843F00403137000F0A1FA08BDA543004008B5074BF0
:401240001B7823B9FFF7B0FF0122044B1A70FFF7E3FF4FF40042024B1A6008BD7981FF1F00E100E008B5724B1B78DAB2714B1B7813F0400F40F0DB806E4B1B7813F0100F69
:4012800000F0D28012F0200F03D102F00903092B15D1684B1B78DBB2112B10D166490B7803F0EF030B70654B197801F0DF011970197841F01001197010215E4B197012F0F1
:4012C000010F00F0B48012F0080F42D05C4B1B7813F0010F2CD05B4B1A78D2B25A4B1B78DBB29A4215D2574A1378DBB257490968CB5CDBB252490B7014214D4B197013788D
:401300000133DBB213704D4A137843F0020313700AE0FF224A4B1A701422013B1A70474A137843F0060313701222424B1A7008BD10223F4B1A7011223E4B1A703F4A1378DB
:4013400043F0200313703C4A137843F01003137008BD384B1B78DBB2112B21D13C4B1A78D2B23C4B1B78DBB29A4210D2344B1978C9B21022013B1A70354A1378DBB236488A
:401380000068C15413780133DBB2137008BD0022274B1A70294A137843F04003137008BD244B1B78DBB2122B3AD112F0020F24D1244B1A78D2B2244B1B78DBB29A4210D291
:4013C000204A1378DBB221490968CB5CDBB21C490B700421164B197013780133DBB2137008BDFF22164B1A700422013B1A70134A137843F00403137008BDFF22104B1A70F1
:401400000022013B1A700D4B1A7802F0FD021A701A7842F001021A701022064B1A7008BD0020FFF773FE08BD1022024B1A7008BDD7490040A281FF1FD6490040A581FF1FDE
:40144000D8490040A481FF1FA781FF1FB081FF1FA681FF1FA881FF1FAC81FF1F014B1878704700BFA581FF1F4FF40041064B1960064B18781A7802F02F021A70044B196090
:4014800000F0F000704700BF80E100E0A581FF1F00E100E000F07F00014B1870704700BFCA490040024660B14FF400430548036005480260054A11700021054A1170054A36
:4014C0001360704780E100E0B081FF1FA781FF1FA481FF1F00E100E0024660B14FF400430548036005480260054A11700021054A1170054A1360704780E100E0AC81FF1FE4
:40150000A881FF1FA681FF1F00E100E0014B1878704700BFA681FF1F0022014B1A707047A681FF1F044A137803F0BF03800100F0400018431070704710510040024A13788A
:4015400043F080031370704776650040014B1880704700BF0C680040014B1880704700BF8C680040014B1880704700BF4C680040014B1870704700BF87640040014B187825
:40158000704700BF67640040014B188880B27047AC68004008B501E0FFF7F6FFFFF7EEFF10F0100FF8D108BD10B5154A137803F0C00343F009031370E03A137843F0010365
:4015C0001370104C237843F00103237042F21070FFF7BCFF42F21070FFF7BEFF0120FFF7C1FF0020FFF7C4FF00F0C2F8237843F01003237000F0C0F8FFF7CCFF10BD00BF18
:40160000766500409764004008B5054B1B7823B9FFF7CAFF0122024B1A70FFF78FFF08BD7A81FF1F024A137843F080031370704774640040014B1870704700BF856400406B
:40164000014B1878704700BF65640040014B1880704700BF48680040014B188880B2704788680040014B1880704700BF08680040024A137843F01003137070477464004047
:4016800000F00300044B1A7802F0FC021A701A7810431870704700BF7464004008B501E0FFF7DAFFFFF7CCFF10F0080FF8D108BD08B54FF6FF70FFF7C9FF4FF6FF70FFF735
:4016C000D1FF00F055F8094A137843F01003137000F052F8FFF7CCFF0020FFF7D1FFFFF7DDFF0220FFF7A6FF08BD00BF9564004008B5054B1B7823B9FFF7DAFF0122024B4E
:401700001A70FFF78FFF08BD7B81FF1F014B1B689864704708ED00E04001C0B2014B1870704700BF02E400E00422014B1A60704700E100E00422014B1A60704780E100E05A
:4017400010B50446FFF7F6FF2046FFF7DFFF0720FFF7E2FFFFF7E8FF10BD00BF000000000230800803D000BF01380046FCD17047EFF3108072B6704780F31088704700BFAD
:4017800081F0004102E000BF83F0004330B54FEA41044FEA430594EA050F08BF90EA020F1FBF54EA000C55EA020C7FEA645C7FEA655C00F0E2804FEA5454D4EB5555B8BF7D
:4017C0006D420CDD2C4480EA020281EA030382EA000083EA010180EA020281EA0303362D88BF30BD11F0004F4FEA01314FF4801C4CEA113102D0404261EB410113F0004F6B
:401800004FEA03334CEA133302D0524263EB430394EA050F00F0A780A4F10104D5F1200E0DDB02FA0EFC22FA05F2801841F1000103FA0EF2801843FA05F359410EE0A5F1D8
:4018400020050EF1200E012A03FA0EFC28BF4CF0020C43FA05F3C01851EBE37101F0004507D54FF0000EDCF1000C7EEB00006EEB0101B1F5801F1BD3B1F5001F0CD34908F2
:401880005FEA30004FEA3C0C04F101044FEA445212F5800F80F09A80BCF1004F08BF5FEA500C50F1000041EB045141EA050130BD5FEA4C0C404141EB010111F4801FA4F174
:4018C0000104E9D191F0000F04BF01460020B1FA81F308BF2033A3F10B03B3F120020CDA0C3208DD02F1140CC2F10C0201FA0CF021FA02F10CE002F11402D8BFC2F1200C81
:4019000001FA02F120FA0CFCDCBF41EA0C019040E41AA2BF01EB0451294330BD6FEA04041F3C1CDA0C340EDC04F11404C4F1200220FA04F001FA02F340EA030021FA04F3FE
:4019400045EA030130BDC4F10C04C4F1200220FA02F001FA04F340EA0300294630BD21FA04F0294630BD94F0000F83F4801306BF81F480110134013D4EE77FEA645C18BFA9
:401980007FEA655C29D094EA050F08BF90EA020F05D054EA000C04BF1946104630BD91EA030F1EBF0021002030BD5FEA545C05D14000494128BF41F0004130BD14F5800498
:4019C0003CBF01F5801130BD01F0004545F0FE4141F470014FF0000030BD7FEA645C1ABF194610467FEA655C1CBF0B46024650EA013406BF52EA033591EA030F41F400211C
:401A000030BD00BF90F0000F04BF0021704730B54FF4806404F132044FF000054FF0000150E700BF90F0000F04BF0021704730B54FF4806404F1320410F0004548BF4042F0
:401A40004FF000013EE700BF42004FEAE2014FEA31014FEA02701FBF12F07F4393F07F4F81F06051704792F0000F14BF93F07F4F704730B54FF4607401F0004521F0004112
:401A800020E700BF50EA010208BF704730B54FF000050AE050EA010208BF704730B511F0004502D5404261EB41014FF4806404F132045FEA915C3FF4DCAE4FF003025FEAF3
:401AC000DC0C18BF03325FEADC0C18BF033202EBDC02C2F1200300FA03FC20FA02F001FA03FE40EA0E0021FA02F11444C1E600BF70B54FF0FF0C4CF4E06C1CEA11541DBFCD
:401B00001CEA135594EA0C0F95EA0C0F00F0DEF82C4481EA030621EA4C5123EA4C5350EA013518BF52EA033541F4801143F4801338D0A0FB02CE4FF00005E1FB02E506F04B
:401B40000042E0FB03E54FF00006E1FB03569CF0000F18BF4EF0010EA4F1FF04B6F5007F64F5407404D25FEA4E0E6D4146EB060642EAC62141EA55514FEAC52040EA5E5018
:401B80004FEACE2EB4F1FD0C88BFBCF5E06F1ED8BEF1004F08BF5FEA500E50F1000041EB045170BD06F0004646EA010140EA020081EA0301B4EB5C04C2BFD4EB0C0541EA26
:401BC000045170BD41F480114FF0000E013C00F3AB8014F1360FDEBF002001F0004170BDC4F10004203C35DA0C341BDC04F11404C4F1200500FA05F320FA04F001FA05F25B
:401C000040EA020001F0004221F0004110EBD37021FA04F642EB06015EEA430E08BF20EAD37070BDC4F10C04C4F1200500FA04F320FA05F001FA04F240EA020001F00041A4
:401C400010EBD37041F100015EEA430E08BF20EAD37070BDC4F1200500FA05F24EEA020E20FA04F301FA05F243EA020321FA04F001F0004121FA04F220EA020000EBD37045
:401C80005EEA430E08BF20EAD37070BD94F0000F0FD101F00046400041EB010111F4801F08BF013CF7D041EA060195F0000F18BF704703F00046520043EB030313F4801F0A
:401CC00008BF013DF7D043EA0603704794EA0C0F0CEA135518BF95EA0C0F0CD050EA410618BF52EA4306D1D181EA030101F000414FF0000070BD50EA410606BF1046194660
:401D000052EA430619D094EA0C0F02D150EA013613D195EA0C0F05D152EA03361CBF104619460AD181EA030101F0004141F0FE4141F470014FF0000070BD41F0FE4141F45C
:401D4000780170BD70B54FF0FF0C4CF4E06C1CEA11541DBF1CEA135594EA0C0F95EA0C0F00F0A7F8A4EB050481EA030E52EA03354FEA013100F088804FEA03334FF08055DD
:401D800045EA131343EA12634FEA022245EA111545EA10654FEA00260EF000419D4208BF964244F1FD0404F5407402D25B084FEA3202B61A65EB03055B084FEA32024FF4F8
:401DC00080104FF4002CB6EB020E75EB030E22BFB61A754640EA0C005B084FEA3202B6EB020E75EB030E22BFB61A754640EA5C005B084FEA3202B6EB020E75EB030E22BF69
:401E0000B61A754640EA9C005B084FEA3202B6EB020E75EB030E22BFB61A754640EADC0055EA060E18D04FEA051545EA16754FEA06164FEAC30343EA52734FEAC2025FEA19
:401E40001C1CC0D111F4801F0BD141EA00014FF000004FF0004CB6E711F4801F04BF01430020B4F1FD0C88BFBCF5E06F3FF6AFAEB5EB030C04BFB6EB020C5FEA500C50F12D
:401E8000000041EB045170BD0EF0004E4EEA113114EB5C04C2BFD4EB0C0541EA045170BD41F480114FF0000E013C90E645EA060E8DE60CEA135594EA0C0F08BF95EA0C0F7D
:401EC0003FF43BAF94EA0C0F0AD150EA01347FF434AF95EA0C0F7FF425AF104619462CE795EA0C0F06D152EA03353FF4FDAE1046194622E750EA410618BF52EA43067FF412
:401F0000C5AE50EA41047FF40DAF52EA43057FF4EBAE12E74FF0FF3C06E000BF4FF0010C02E000BF4FF0010C4DF804CD4FEA410C7FEA6C5C4FEA430C18BF7FEA6C5C1BD057
:401F400001B050EA410C0CBF52EA430C91EA030F02BF90EA020F0020704710F1000F91EA030F58BF994208BF90422CBFD8176FEAE37040F0010070474FEA410C7FEA6C5CD6
:401F800002D150EA013C07D14FEA430C7FEA6C5CD6D152EA033CD3D05DF8040B704700BF8446104662468C461946634600E000BF01B5FFF7B7FF002848BF10F1000F01BD07
:401FC0004DF808EDFFF7F4FF0CBF012000205DF808FB00BF4DF808EDFFF7EAFF34BF012000205DF808FB00BF4DF808EDFFF7E0FF94BF012000205DF808FB00BF4DF808ED43
:40200000FFF7CEFF94BF012000205DF808FB00BF4DF808EDFFF7C4FF34BF012000205DF808FB00BF4FEA410212F5001215D211D56FF47873B3EB625212D94FEAC12343F0B7
:40204000004343EA505311F0004F23FA02F018BF404270474FF00000704750EA013005D111F0004008BF6FF0004070474FF00000704700BF4FEA4102B2F1E04324BFB3F5C7
:40208000001CDCF1FE5C0DD901F0004C4FEAC0024CEA5070B2F1004F40EB830008BF20F00100704711F0804F21D113F13872BCBF01F00040704741F480114FEA5252C2F171
:4020C0001802C2F1200C10FA0CF320FA02F018BF40F001004FEAC1234FEAD32303FA0CFC40EA0C0023FA02F34FEA4303CCE77FEA625307D150EA01331EBF4FF0FE4040F40D
:402100004000704701F0004040F0FE4040F40000704700BF014B1868704700BF3C81FF1F0E4B70B51E460E4C0025E41AA410A54204D056F8253098470135F8E700F046F8AF
:40214000084B094C1E46E41AA4100025A54204D056F8253098470135F8E770BDD8210000D8210000D8210000E021000010B5431E0A44914204D011F8014B03F8014FF8E777
:4021800010BD03460244934202D003F8011BFAE77047000000000000C84900401900405100403000F0510040100000000140001000140140000800400140000A004C0140AB
:4021C000000200500140200043000000F8B500BFF8BC08BC9E4670474D00000085090000F8B500BFF8BC08BC9E4670472900000000220000C880FF1F78000000780000006F
:40220000000000000000E02EC05D00001800000000366E010000000000000000000000000000000000000000000000000000000000000000C82100000000000000000000CD
:4022400000000000000000000000000000000000000000000000000000000000000000000000000000000000000000000000000000000000DC80FF1F0000000000000000E4
:40228000000000000000000000000000000000000000000000000000000000000000000000000000000000000000000000000000000000000000000000000000000000001E
:4022C00000000000000000000000000000000000000000000000000000000000000000000000000000000000000000000000000000000000000000000000000000000000DE
:40230000000000000000000000000000000000000000000000000000000000000000000000000000000000000000000000000000000000000000000000000000000000009D
:40234000000000000000000000000000000000000000000000000000000000000000000000000000000000000000000000000000000000000000000000000000000000005D
:020000040003F7
:0200000480007A
:40000000035200400564004002650040540001403101014002030140530401403D0501405B06014040070140571401403A1501404D1601403817014004180140021901401F
:40004000061B0140054001400B4101400A420140074301400A4801401C4901400B4C0140064D014005500140025101401882600264037701800D810D850F870D8567870DC6
:400080000202060412011B0122022D0130043402360137013E104010410545D14602480749FF4AFF4BFF4DA04F04501852805405580459045A045B045C445D445F016040E2
:4000C00062C06440654066C068C06AC06CC06EC0860488018F019A079B02A208A302A701B001B202B408B501B604B702BF10C020C105C5D1C602C807C9FFCAFFCBFFCDA037
:40010000CF04D018D280D405D804D904DA04DB04DC45DD55DF01E040E2C0E440E540E6C0E8C0EAC0ECC0EEC000010220041409020F081080168018011A051B011C561D204D
:400140001F202240258027082B012E012F20322036203F804001452049024A204B804D014F8850805340574059025A845C405D015F08710276808580C06CC248C418CAC808
:40018000CC24CE10D028D218D6DB8610AC010201030F09030B0C0D050F0A12011503170C210F220129052B0A330F34013E1040234105420449FF4AFF4BFF4F015018529308
:4001C000580459045A045B045F016040624064406540668068806A806C806E8082018B028F01920193029E01A001A302AA01AF02B001B301B702BE01BF40C063C104C20578
:40020000C5ECC620C80BC9FFCAFFCBFFCD83CE03CF01D018D403D604D804D904DA04DB04DF05E040E240E440E540E680E880EA80EC80EE800002010205020A400C800D0188
:400240000E4010801680171018041B101C401F01231026402710288029202C802E4031083502380239503B023EA040444220448046204A014C014D014F2456205D015E80DC
:400280005F146501680869506B02708072427C8081018904A610C018C298C458CA95CC82CE3DD0C7D238D6F0D880DE10E480020203030D010E0317021A011B011C03210397
:4002C000220328012F03350336034050410349FF4AFF4BFF4DA04F045018580459045A045D025F01604062C06440654066C068C06AC06CC06EC081108306880789018A083E
:400300008B028E10900F94029506960197199C089E07A11FA204A610A801A909AA02AB06AD04AF08B210B31FB40FBE04C050C102C5D1C620C80BC9FFCAFFCBFFCDAFCE0F07
:40034000CF04D018D405D804D904DA04DB04DD22DF01E040E2C0E440E540E6C0E8C0EAC0ECC0EEC0012002020502060209080B820D100E021008125013021502171019242E
:400380001C0221082704288029202A402E402F403108371439103B023E8241204610482049014A024E02512052105985680269406B0178807A01913A9240930299029A8238
:4003C0009B129C809D20A008A401A508A611AD10AE80C093C2CDC45ECA9DCC62CE95D044D218D60B00070401080212071C0420082C0F3407360838803E404031410649FF9F
:400400004AFF4BFF4DA04F01501858045A045C035D015F016040628064406540668068406A506BA86C406D206E506FA8820483048E01960497019E02A001A302A402A80473
:40044000B001B204B301B402B502B704BE15C035C106C50CC620C75EC83BC9FFCAFFCBFFCDAFCE07CF01D018D280D407D804D904DA04DB04DC10DD11DF05E040E280E44060
:40048000E540E680E840EA50EBA8EC40ED20EE50EFA800240280064109820C840D041082171618051A0A1D081E48261027162C8034043E303F024001410845084B204C80F6
:4004C0004D204E014F04562957015E586608670476407D408520871091489608A012A182A280A610AC80C09EC2A9C479CA80CC40CE80D04AD234D670D860DE10E008E40185
:40050000E602EA04EE04020113021A0127013102360137014061410449FF4AFF4BFF4F0150185280580459045A045B045C225D235F016040624064406540668068806A8094
:400540006C806E8083048A028B018D0397019C019F02A202A601AF01B002B304B601B703BE01C061C104C5ECC602C807C9FFCAFFCBFFCD83CE03CF01D018D280D401D604A5
:40058000D804D904DA04DB04DC32DD33DF05E040E240E440E540E680E880EA80EC80EE800020078009400C2010A019801A401E021F40203022802540260227802A402C200C
:4005C0003284350238123940418043014580470149054A084E0C50805180524059055A40608070017102750279408201914897809B019D80A022A613C012C241C40CCA48C2
:40060000CC8ACE0DD099D224D60BD801DE08E20339803F4059045F012580E2038580A180E008E401EA04EE04304236248710CCF0E6400C04844093209C40A320A402A62478
:40064000AF20C220E610EE103C808002880493209804A320A402A624CE20E22093209704A320A440A624AF04E84080088302844093209704A320A440A624E2C0E6800B0458
:4006800012201640531057205F027008771082208640932097049B12A008A320AA04AB10AE20C240C430D460D680DC80DE20E010E480EA20EE601020138016201F807B10CA
:4006C0007F4080208780C40EC601DE03831087409780A710AA20AB80003508300A05100E1A0E00FF03C000006100A0595900000006000000030000000300030000000000B7
:40070000004B4B0000000000000202000000000040BFBF00830000000C001801000000000000000000000000000000000000000000000000000000000000000000000000B9
:400740000000000000000000000000000000000000000000000000000000000000000000000000000000000000000000000000000000000000000000000000000000000079
:400780000000000000000000000000000000000000000000000000000000000000000000000000000000000000000000000000000000000000000000000000000000000039
:4007C00000000000000000000000000000000000000000000000000000000000000000000000000000000000000000000000000000000000000000000000000000000000F9
:4008000000000000000000000000000000000000000000000000000000000000000000000000000000000000000000000000000000000000000000000000000000000000B8
:0200000490006A
:0400000000004005B7
:0200000490105A
:04000000BC90ACAF55
:0200000490303A
:02000000E265B7
:0200000490402A
:4000000000000000000000000000000000000000000000000000000000000000000000000000000000000000000000000000000000000000000000000000000000000000C0
:400040000000000000000000000000000000000000000000000000000000000000000000000000000000000000000000000000000000000000000000000000000000000080
:400080000000000000000000000000000000000000000000000000000000000000000000000000000000000000000000000000000000000000000000000000000000000040
:4000C0000000000000000000000000000000000000000000000000000000000000000000000000000000000000000000000000000000000000000000000000000000000000
:0200000490501A
:0C00000000012E16106900012E25F2CE22
:00000001FF