:400000000080002011000000A9030000A903000008B5044B1A6803F53F5302331A6000F0CBF900BFFA46004010B5054C237833B9044B13B10448AFF300800123237010BD5B
:400040004081FF1F00000000E8090000084B10B51BB108490848AFF300800848036803B910BD074B002BFBD0BDE81040184700BF000000004481FF1FE8090000C880FF1F30
:400080000000000008B562B600F006F800F00AF800F030F8FEE700BF08B500F045FA00F0F5FB08BD08B500F005FB00F011FB08BD10B500F045FB00F055FB00F049FB074C14
:4000C000636842F2107202FB03002060012000F0EBFB00F077FB0123A36010BD5C81FF1F08B500F027FB024A53680133536008BD5C81FF1F08B5034800F056FB024800F0B7
:400100000BFB08BDB1000000E1000000FEE700BFF0B40022174611E050F82760F3B226F0FF0608E001EB420511F812406D78A5550132013BDBB2002BF4D101371E2FEBD991
:40014000F0BC70470B4B1B78DBB203F007010A4A11701B09013213700222084B1A702023074A1370033213702D3213704422054B1A707047CF0100496E5800400D51004096
:40018000285B00407658004008B50A46002100F022FC08BD08B500F013FC08BD38B5EF22334B1A80182333490B7002310A80324A137040F2DF1204310A8002310B70023125
:4001C0000A802E4A137004222D492E48FFF7E2FF02222D4B1A7008224FF040231A70032103F500731970294B1B78DBB228490B70284B1A8041F25122023B1A800024192591
:400200000CE0254B1B7803F0010343EA440404F003044FF4F07000F097FB013D0DB1032CEFD115B90320FFF771FF1C4B4FF480721A8007221A70002219490A70482002317F
:4002400008701A700222033B1A7004220A331A70144A137843F00F031370013A137843F001031370013A137843F08003137038BD8040004082400040864000408E40004068
:4002800068040048004100400043004008010049A146004022420040254200400440004006400040A243004038B572B62D4A137843F00403137000240CE02B4D63001919A2
:4002C0004A0011462A44084691882858FFF75CFF0134E4B2082CF0D924494FF09040FFF717FF234A137843F0020313701032137843F0020313701F4C237843F0400323701D
:40030000A2F58632513A137843F0100313700A2219491A48FFF73EFF0A2219491948FFF739FF082218491948FFF734FF082218491848FFF72FFF184A137843F0080313707D
:40034000164D61232B70FFF729FF81232B700122134B1A70FFF7F6FE0E2221461148FFF719FF38BDE8460040EC0900007C00004803500140A04300404004004800510040BB
:400380004C040048C051004058040048125100406004004832510040224300400048004004000840B043004008B500F0DDFA03680C2B00D1FEE7FEE708B5104E104D16E0C3
:4003C00029686B68AC68002204E051F8040B43F8040B0432A242F8D1E868002203E0002143F8041B04328242F9D11035013E002EE6D100F0BFFAFFF745FEFEE70100000035
:40040000480A000008B5104A104B1A60104A136843F40073136000230AE0032B03D80D4A52F8231000E00C490C4A42F8231001332F2BF2D90A4B1A780A4B1A70074A0A4BE5
:400440001A60FFF731FF08BD0004FA050CED00E014ED00E000000000A90300000080FF1FBC760040C080FF1F08ED00E0024A137843F080031370704777640040014B1870B5
:40048000704700BF07640040014B1870704700BF47640040014B1870704700BF27640040014B1870704700BF87640040014B1878704700BF67640040014B1878704700BFAD
:4004C0005764004008B501E0FFF7F6FFFFF7EEFF10F0100FF8D108BD10B5114A137803F0C00343F0090313700E4C237843F0010323706420FFF7C2FF6420FFF7C5FF32203B
:40050000FFF7C8FF0020FFF7CBFF00F025FA237843F01003237000F023FAFFF7D3FF10BD776400409764004008B5054B1B7823B9FFF7D2FF0122024B1A70FFF797FF08BD15
:400540006881FF1F08B50A280FD00C2802D0082806D102E04FF4805209E04FF4807206E0002000F0B7F9002201E04FF480620021094B198042F2107303FB02F303F6C4132E
:40058000064A82FB0302DB17C3EBE223044A1360044B198008BD00BF6C81FF1FAD8BDB687081FF1F6E81FF1F38B500F0D5F904461F4A137843F0020313701032137843F051
:4005C000020313701A3A137843F0010313701032137843F00103137002F5AA521A32137803F0FE0343F0020313700425114B1D70013B1A7842F040021A701A7802F0FC027A
:400600001A70C822053B1A700222A3F59753123B1A70094A137843F0080313700A2000F05BF9064B1D60204600F09AF938BD00BFAB4300400E5900402F5B004080E200E0A6
:4006400010B504460A280DD00C2802D0082804D101E0C42207E0442205E0002000F03AF9C42200E08422034B1A702046FFF76AFF10BD00BF0A59004008B5102000F020F9E7
:400680000721022000F046F90749022000F02EF9064A137843F0060313700C20FFF7D0FF0022034B1A8008BDE1060000095900407481FF1F08B5054B1B7823B9FFF7DCFFF5
:4006C0000122024B1A70FFF76FFF08BD6981FF1F024A137843F001031370704708590040704700BF014B1B681864704708ED00E04001C0B2014B1870704700BF00E400E0D8
:400700000122014B1A60704700E100E00122014B1A60704780E100E010B50446FFF7F6FF2046FFF7DFFF0720FFF7E2FFFFF7E8FF10BD00BF0122014B1A60704780E200E0FA
:40074000024A137803F07F031370704775650040024B1B78024B188880B2704704650040886A0040024A137803F07F031370704777650040014B1B685864704708ED00E08F
:400780004001C0B2014B1870704700BF01E400E00222014B1A60704700E100E00222014B1A60704780E100E010B50446FFF7F6FF2046FFF7DFFF0720FFF7E2FFFFF7E8FF24
:4007C00010BD00BF0222014B1A60704780E200E0024A137843F080031370704776640040014B1870704700BF06640040014B1870704700BF46640040014B1870704700BF37
:4008000026640040014B1870704700BF86640040014B1878704700BF66640040014B1878704700BF5664004008B501E0FFF7F6FFFFF7EEFF10F0100FF8D108BD10B5114A99
:40084000137803F0C00343F0090313700E4C237843F0010323706420FFF7C2FF6420FFF7C5FF3220FFF7C8FF0020FFF7CBFF00F073F8237843F01003237000F071F8FFF730
:40088000D3FF10BD766400409664004008B5054B1B7823B9FFF7D2FF0122024B1A70FFF797FF08BD6A81FF1F044A137803F07F03C001C0B218431070704700BF005100404B
:4008C000034B1A7800F0F80010431870704700BF0241004001BE704708B5034B1B7A00FB03F000F031F808BDCC80FF1F70B504460E46074B1D681F2802D90020FFF7EAFF55
:4009000004F01F04103455F8240045F8246070BD08ED00E038B504460D46072902D90020FFF7D8FF1F2C02D90020FFF7D3FF04F01F0000F1604000F564406D01EDB20570D9
:4009400038BD00BF000000000230800803D000BF01380046FCD17047EFF3108072B6704780F31088704700BF014B1868704700BF3C81FF1F0E4B70B51E460E4C0025E41A26
:40098000A410A54204D056F8253098470135F8E700F048F8084B094C1E46E41AA4100025A54204D056F8253098470135F8E770BD300A0000300A0000300A0000380A0000AF
:4009C00010B5431E0A44914204D011F8014B03F8014FF8E710BD03460244934202D003F8011BFAE77047000000000000C84900401900205100401000405100403000F0513E
:400A00000040100000000140001000140140000800400140000A004C014000020050014020004300F8B500BFF8BC08BC9E4670474D00000005040000F8B500BFF8BC08BCF1
:400A40009E46704729000000580A0000C880FF1F7800000038000000000000000000E02EC05D00001800000000366E01000000000000000000000000000000000000000052
:400A8000000000000000000000000000220A00000000000000000000000000000000000000000000000000000000000000000000000000000000000000000000000000000A
:400AC000000000000000000000000000DC80FF1F0000000000000000000000000000000000000000000000000000000000000000000000000000000000000000000000007C
:400B000000000000000000000000000000000000000000000000000000000000000000000000000000000000000000000000000000000000000000000000000000000000B5
:400B40000000000000000000000000000000000000000000000000000000000000000000000000000000000000000000000000000000000000000000000000000000000075
:400B80000000000000000000000000000000000000000000000000000000000000000000000000000000000000000000000000000000000000000000000000000000000035
:400BC00000000000000000000000000000000000000000000000000000000000000000000000000000000000000000000000000000000000000000000000000000000000F5
:020000040003F7
:0200000480007A
:40000000035200400264004003650040010101400203014001050140510601402E070140040C0140020D0140010F0140591401404115014040160140251701400119014059
:40004000031B01400540014004410140054201400443014002440140014501400146014001470140074801401A4901400A4C0140054D0140045001400251014018016002E4
:400080006403860D870D74018567870DE2208510E20291200201060207010A0416022D0130043201340237013E104030410645D046204701481A49FF4AFF4BFF4DA04F0410
:4000C000501852805405580459045A045B045C335D335F01604062C06440654066C068C06AC06CC06EC08202910192019701A602AA04B004B402B601B701BE10C010C102CA
:40010000C5D2C701C813C9FFCAFFCBFFCDA0CF04D018D280D405D804D904DA04DB04DC22DD22DF01E040E2C0E440E540E6C0E8C0EAC0ECC0EEC00001050406880B400F2015
:400140001020120818011A081B021D0C1E58224026402C202E44320833023E08400142044508482049014F215104520854045608571059015A885E885F0173407680912065
:40018000C078C228C406CA10CC03CE40D04CD220D6DB39083F0459045F0125088508E220040806010C1C0E02121C18041A011C101E0120202C3F3003341C362038803E402B
:4001C0004031410249FF4AFF4BFF4DA04F01501858045A045B045C015F016040628064406540668068406A506BA86C406D206E506FA8820186018C048F02940897019E06BE
:40020000A208A801B008B201B301B404B502B602BE15C035C102C50CC625C70EC81FC9FFCAFFCBFFCDAFCE07CF01D018D280D407D804D904DA04DB04DF05E040E280E44091
:40024000E540E680E840EA50EBA8EC40ED20EE50EFA800440548074009820A040C800E20108216401720184119201A061D481E882610272035083D803E3040014118431017
:40028000450847104C804E014F04554056685E9866086704680269406A406B0277407D408440854090049120964099089D209F02A040A182A908B140C0B5C2ABC459CC4019
:4002C000CE10D06ED210D670D860DE10E008E401EA05EE2007010B0137014061410449FF4AFF4BFF4F01501859045A045C305D015F016040624064406540668068806A80BD
:400300006C806E8083018602870192019E02B101B401B602BE40C065C104C5ECC602C807C9FFCAFFCBFFCD83CE03CF01D018D280D401D604D804D904DA04DB04DC21DD1137
:40034000DF05E040E240E440E540E680E880EA80EC80EE80000409821804194020802540380139083C083E10408042404580470249254B804D2051805340594563407102D9
:4003800078808740900191289210A004C004C209CE63D091D22CD60BD801DE08E608E608E008E401EA053040330836408B08CC700B029C40A640C2403E1093029C40A64031
:4003C000CE20930296109C40A6408B10E20497209720972085088640930296109C40A640E650122016405110561075087B02822084408650912099089C40A302AA10AB0326
:40040000B110C430D460DC80DE20E010E240E480E610EAA0EC20132814401F107B107F4084409720C40EC601DE03831087409780A710AB28000C0A0C100F1A0F003F03C013
:400440004900C0393900000006000000030000000300030000000000004B4B0000000000003F3F00030000000C0018010000000000000000000000000000000000000000B6
:40048000000000000000000000000000000000000000000000000000000000000000000000000000000000000000000000000000000000000000000000000000000000003C
:4004C00000000000000000000000000000000000000000000000000000000000000000000000000000000000000000000000000000000000000000000000000000000000FC
:4005000000000000000000000000000000000000000000000000000000000000000000000000000000000000000000000000000000000000000000000000000000000000BB
:40054000000000000000000000000000000000000000000000000000000000000000000000000000000000000000000000000000000000000000000000000000000000007B
:0200000490006A
:0400000000004005B7
:0200000490105A
:04000000BC90ACAF55
:0200000490303A
:0200000014A743
:0200000490402A
:4000000000000000000000000000000000000000000000000000000000000000000000000000000000000000000000000000000000000000000000000000000000000000C0
:400040000000000000000000000000000000000000000000000000000000000000000000000000000000000000000000000000000000000000000000000000000000000080
:400080000000000000000000000000000000000000000000000000000000000000000000000000000000000000000000000000000000000000000000000000000000000040
:4000C0000000000000000000000000000000000000000000000000000000000000000000000000000000000000000000000000000000000000000000000000000000000000
:0200000490501A
:0C00000000012E16106900012E1B2510B7
:00000001FF