:400000000080002011000000B5030000B503000008B5044B1A6803F53F5302331A6000F0E9F900BFFA46004010B5054C237833B9044B13B10448AFF300800123237010BD25
:400040003881FF1F00000000A0180000084B10B51BB108490848AFF300800848036803B910BD074B002BFBD0BDE81040184700BF000000003C81FF1FA0180000C880FF1FB2
:400080000000000008B562B600F00CF802E0012000F084FB00F02EF81D28F8DD002000F07DFBF7E708B500F0C1FA00F02DFA00F059FB024800F0E2FA08BD00BF29010000E8
:4000C00008B500F003FBC0F57F40FF3000F0D6FC05A3D3E9002300F037FD00F047FF044B186008BDAFF300809CC420B07268913F6082FF1F014B1868704700BF6082FF1F45
:4001000038B50446064D0346064A4FF48071284600F094FF284600F011FA204638BD00BF5481FF1FA418000008B5FFF7C9FFFFF7E7FF024B186000F0EBFA08BD6082FF1F8F
:40014000FEE700BFF0B40022174611E050F82760F3B226F0FF0608E001EB420511F812406D78A5550132013BDBB2002BF4D10137152FEBD9F0BC7047064B1B78DBB203F0F0
:400180000701054A11701B09013213704422034B1A707047CF0100496E5800407658004008B50A46002100F040FF08BD38B51722284B1A801823284A1370332102321180CD
:4001C00002321370EF2102321180023213700222224B1A7008224FF040231A70032103F5007319701E4B1B78DBB21E490B701E4B1A8041F25122023B1A80002419250CE0FA
:400200001A4B1B7803F0010343EA440404F003044FF4F07000F0D0FA013D0DB1032CEFD115B90320FFF78CFF114B4FF480721A8007221A7000220F490A70482002310870C0
:400240001A700222033B1A700B4A137843F00703137038BD80400040824000400043004008010049A146004022420040254200400440004006400040A243004008B500F04E
:40028000C9FE08BD38B572B6374A137843F00403137000240CE0354D630019194A0011462A44084691882858FFF77AFF0134E4B2072CF0D900240BE02C49A30018194200E7
:4002C00088180622416B006BFFF7D8FF0134E4B2002CF1D026494FF09040FFF733FF254A254B1A60254A137843F0020313701032137843F002031370214C237843F04003E0
:400300002370A2F58632513A137843F0100313700A221C491C48FFF7B1FF08221B491C48FFF7ACFF08221B491B48FFF7A7FF08221A491B48FFF7A2FF1A4A137843F008038D
:400340001370194D61232B70FFF730FF81232B700122164B1A70FFF70FFF0E2221461448FFF78CFF38BD00BFE8460040B818000058000048040404C45816014003500140E6
:40038000A0430040CC060048C0510040D806004812510040E006004822510040E806004832510040224300400048004004000840B043004008B500F001FE03680C2B00D141
:4003C000FEE7FEE708B5094B1A681044084BC31A802B02DC054B186005E000F0EFFD0C2303604FF0FF32104608BD00BFCC80FF1F6882FF1F08B5104E104D16E029686B68EA
:40040000AC68002204E051F8040B43F8040B0432A242F8D1E868002203E0002143F8041B04328242F9D11035013E002EE6D100F0CBFDFFF727FEFEE7010000004C19000002
:4004400008B5104A104B1A60104A136843F40073136000230AE0032B03D80D4A52F8231000E00C490C4A42F8231001332F2BF2D90A4B1A780A4B1A70074A0A4B1A60FFF787
:4004800001FF08BD0004FA050CED00E014ED00E000000000B50300000080FF1FBC760040C080FF1F08ED00E07222084B1A70202203F201131A700622613B1A70472210337F
:4004C0001A70002252331A70704700BF8964004010B500F079F904460A4A137843F02003137002F20112137843F0100313700132137843F01003137000F042F9204600F012
:4005000067F910BD9964004008B5054B1B7823B9FFF7CAFF0122024B1A70FFF7D9FF08BD5482FF1F034B1B7813F0040FFAD1024B187070476B6500404865004038B5074B0B
:400540001B782BB938BDFFF7EDFF0134A4B201E005460024285D0028F5D138BD5482FF1F024A137843F080031370704778650040014B1880704700BF0C6A0040014B18801E
:40058000704700BF8C6A0040014B1880704700BF4C6A0040014B1870704700BF87650040014B1878704700BF67650040014B188880B27047AC6A004008B501E0FFF7F6FFB7
:4005C000FFF7EEFF10F0100FF8D108BD10B5154A137803F0C00343F0090313701E32137843F001031370104C237843F00103237047F23050FFF7BCFF47F23050FFF7BEFF18
:400600000120FFF7C1FF0020FFF7C4FF00F0DCF8237843F01003237000F0DAF8FFF7CCFF10BD00BF786500409765004008B5054B1B7823B9FFF7CAFF0122024B1A70FFF73F
:400640008FFF08BD5682FF1F014B1B681864704708ED00E04001C0B2014B1870704700BF00E400E00122014B1A60704700E100E00122014B1A60704780E100E010B5044648
:40068000FFF7F6FF2046FFF7DFFF0720FFF7E2FFFFF7E8FF10BD00BF024A137843F080031370704776650040014B1870704700BF86650040014B1878704700BF66650040FA
:4006C000014B1880704700BF486A0040014B188880B27047886A0040014B1880704700BF086A0040024A137843F01003137070477665004000F00300044B1A7802F0FC0265
:400700001A701A7810431870704700BF7665004008B501E0FFF7DAFFFFF7CCFF10F0080FF8D108BD08B54FF6FE70FFF7C9FF4FF6FE70FFF7D1FF00F047F8094A137843F077
:400740001003137000F044F8FFF7CCFF0020FFF7D1FFFFF7DDFF0220FFF7A6FF08BD00BF9665004008B5054B1B7823B9FFF7DAFF0122024B1A70FFF78FFF08BD5782FF1F3D
:40078000054A137843F0020313701032137843F002031370704700BFA2430040044A137803F0FD03400000F0020018431070704720510040000000000230800803D000BFF4
:4007C00001380046FCD17047EFF3108072B6704780F31088704700BF81F0004102E000BF83F0004330B54FEA41044FEA430594EA050F08BF90EA020F1FBF54EA000C55EAEC
:40080000020C7FEA645C7FEA655C00F0E2804FEA5454D4EB5555B8BF6D420CDD2C4480EA020281EA030382EA000083EA010180EA020281EA0303362D88BF30BD11F0004FBC
:400840004FEA01314FF4801C4CEA113102D0404261EB410113F0004F4FEA03334CEA133302D0524263EB430394EA050F00F0A780A4F10104D5F1200E0DDB02FA0EFC22FA5C
:4008800005F2801841F1000103FA0EF2801843FA05F359410EE0A5F120050EF1200E012A03FA0EFC28BF4CF0020C43FA05F3C01851EBE37101F0004507D54FF0000EDCF110
:4008C000000C7EEB00006EEB0101B1F5801F1BD3B1F5001F0CD349085FEA30004FEA3C0C04F101044FEA445212F5800F80F09A80BCF1004F08BF5FEA500C50F1000041EB48
:40090000045141EA050130BD5FEA4C0C404141EB010111F4801FA4F10104E9D191F0000F04BF01460020B1FA81F308BF2033A3F10B03B3F120020CDA0C3208DD02F1140C85
:40094000C2F10C0201FA0CF021FA02F10CE002F11402D8BFC2F1200C01FA02F120FA0CFCDCBF41EA0C019040E41AA2BF01EB0451294330BD6FEA04041F3C1CDA0C340EDCBE
:4009800004F11404C4F1200220FA04F001FA02F340EA030021FA04F345EA030130BDC4F10C04C4F1200220FA02F001FA04F340EA0300294630BD21FA04F0294630BD94F0E4
:4009C000000F83F4801306BF81F480110134013D4EE77FEA645C18BF7FEA655C29D094EA050F08BF90EA020F05D054EA000C04BF1946104630BD91EA030F1EBF0021002035
:400A000030BD5FEA545C05D14000494128BF41F0004130BD14F580043CBF01F5801130BD01F0004545F0FE4141F470014FF0000030BD7FEA645C1ABF194610467FEA655C91
:400A40001CBF0B46024650EA013406BF52EA033591EA030F41F4002130BD00BF90F0000F04BF0021704730B54FF4806404F132044FF000054FF0000150E700BF90F0000F61
:400A800004BF0021704730B54FF4806404F1320410F0004548BF40424FF000013EE700BF42004FEAE2014FEA31014FEA02701FBF12F07F4393F07F4F81F06051704792F0B0
:400AC000000F14BF93F07F4F704730B54FF4607401F0004521F0004120E700BF50EA010208BF704730B54FF000050AE050EA010208BF704730B511F0004502D5404261EB69
:400B000041014FF4806404F132045FEA915C3FF4DCAE4FF003025FEADC0C18BF03325FEADC0C18BF033202EBDC02C2F1200300FA03FC20FA02F001FA03FE40EA0E0021FA7B
:400B400002F11444C1E600BF70B54FF0FF0C4CF4E06C1CEA11541DBF1CEA135594EA0C0F95EA0C0F00F0DEF82C4481EA030621EA4C5123EA4C5350EA013518BF52EA033528
:400B800041F4801143F4801338D0A0FB02CE4FF00005E1FB02E506F00042E0FB03E54FF00006E1FB03569CF0000F18BF4EF0010EA4F1FF04B6F5007F64F5407404D25FEA09
:400BC0004E0E6D4146EB060642EAC62141EA55514FEAC52040EA5E504FEACE2EB4F1FD0C88BFBCF5E06F1ED8BEF1004F08BF5FEA500E50F1000041EB045170BD06F000461D
:400C000046EA010140EA020081EA0301B4EB5C04C2BFD4EB0C0541EA045170BD41F480114FF0000E013C00F3AB8014F1360FDEBF002001F0004170BDC4F10004203C35DAF2
:400C40000C341BDC04F11404C4F1200500FA05F320FA04F001FA05F240EA020001F0004221F0004110EBD37021FA04F642EB06015EEA430E08BF20EAD37070BDC4F10C048D
:400C8000C4F1200500FA04F320FA05F001FA04F240EA020001F0004110EBD37041F100015EEA430E08BF20EAD37070BDC4F1200500FA05F24EEA020E20FA04F301FA05F2AA
:400CC00043EA020321FA04F001F0004121FA04F220EA020000EBD3705EEA430E08BF20EAD37070BD94F0000F0FD101F00046400041EB010111F4801F08BF013CF7D041EAAA
:400D0000060195F0000F18BF704703F00046520043EB030313F4801F08BF013DF7D043EA0603704794EA0C0F0CEA135518BF95EA0C0F0CD050EA410618BF52EA4306D1D1A9
:400D400081EA030101F000414FF0000070BD50EA410606BF1046194652EA430619D094EA0C0F02D150EA013613D195EA0C0F05D152EA03361CBF104619460AD181EA03017D
:400D800001F0004141F0FE4141F470014FF0000070BD41F0FE4141F4780170BD70B54FF0FF0C4CF4E06C1CEA11541DBF1CEA135594EA0C0F95EA0C0F00F0A7F8A4EB05042A
:400DC00081EA030E52EA03354FEA013100F088804FEA03334FF0805545EA131343EA12634FEA022245EA111545EA10654FEA00260EF000419D4208BF964244F1FD0404F585
:400E0000407402D25B084FEA3202B61A65EB03055B084FEA32024FF480104FF4002CB6EB020E75EB030E22BFB61A754640EA0C005B084FEA3202B6EB020E75EB030E22BF89
:400E4000B61A754640EA5C005B084FEA3202B6EB020E75EB030E22BFB61A754640EA9C005B084FEA3202B6EB020E75EB030E22BFB61A754640EADC0055EA060E18D04FEA65
:400E8000051545EA16754FEA06164FEAC30343EA52734FEAC2025FEA1C1CC0D111F4801F0BD141EA00014FF000004FF0004CB6E711F4801F04BF01430020B4F1FD0C88BF36
:400EC000BCF5E06F3FF6AFAEB5EB030C04BFB6EB020C5FEA500C50F1000041EB045170BD0EF0004E4EEA113114EB5C04C2BFD4EB0C0541EA045170BD41F480114FF0000E75
:400F0000013C90E645EA060E8DE60CEA135594EA0C0F08BF95EA0C0F3FF43BAF94EA0C0F0AD150EA01347FF434AF95EA0C0F7FF425AF104619462CE795EA0C0F06D152EA44
:400F400003353FF4FDAE1046194622E750EA410618BF52EA43067FF4C5AE50EA41047FF40DAF52EA43057FF4EBAE12E74FEA410212F5001215D211D56FF47873B3EB6252A1
:400F800012D94FEAC12343F0004343EA505311F0004F23FA02F018BF404270474FF00000704750EA013005D111F0004008BF6FF0004070474FF00000704700BF014B18685E
:400FC000704700BF3081FF1F0E4B70B51E460E4C0025E41AA410A54204D056F8253098470135F8E700F0A0FC084B094C1E46E41AA4100025A54204D056F825309847013565
:40100000F8E770BD3419000034190000341900003C19000010B5431E0A44914204D011F8014B03F8014FF8E710BD03460244934202D003F8011BFAE7704700000CB430B577
:40104000164B0C1E9DB01D6804DA8B232B604FF0FF301EE04FF40273ADF814300CBF234604F1FF33049307934FF6FF7302900690ADF81630209A21AB02A92846019300F076
:4010800069F8431CBCBF8B232B6014B1029B00221A701DB0BDE8304002B070473081FF1F2DE9F0478E6882469E420C46914698463ED88A8912F4906F3AD025680969022346
:4010C0006F1A656905EB450595FBF3F57B1C43449D4238BF1D4653050FD5294600F040FB064698B13A462169FFF794FFA38923F4906343F08003A38113E02A4600F08EFBA6
:40110000064670B92169504600F0DEFA0C23CAF80030A3894FF0FF3043F04003A381BDE8F08726613E44266046466561ED1BA560464528BF464649463246206800F0A8FAD4
:40114000A36800209B1BA36023681E442660BDE8F08700002DE9F04F9DB003938B8980461C060D4616460DD50B695BB9402100F0F7FA2860286118B90C23C8F80030CDE0BF
:4011800040236B610023099320238DF82930DFF89CB130238DF82A3037463C4614F8013B1BB9B7EB060910D003E0252BF9D02746F3E74B46324629464046FFF771FF013046
:4011C00000F0A780099B4B4409933B78002B00F0A08000234FF0FF3204930793059206938DF853301A930126052221784E4800F041FA671C049B38B14B4A3C46801A06FA0E
:4012000000F018430490EFE7D90644BF20228DF853201A0744BF2B228DF8532022782A2A03D0079A00210A200BE0039A111D12680391002A10DA524243F0020007920490F9
:401240000BE027463B780134303B092B03D800FB02320121F5E701B107923B782E2B1ED17B782A2B0AD1039B02371A1D1B680392002BB8BF4FF0FF33059310E000231946DB
:401280000593781C0A2407463A780130303A092A03D804FB01210123F5E703B1059103223978224800F0E6F940B14023CBEB000003FA00F0049B013718430490397806221C
:4012C0001B487E1C8DF8281000F0D4F988B1194B33B9039B073323F007030833039314E003AB00932A46144B04A94046AFF3008007E003AB00932A460F4B04A9404600F0BA
:4013000093F8B0F1FF3F824603D0099B5344099342E7AB895B0601D4099801E04FF0FF301DB0BDE8F08F00BFF4180000FA180000FE18000000000000A11000002DE9F0476C
:4013400091461F460A698B6806469342B8BF1346C9F8003091F843200C46DDF8208012B10133C9F800302368990642BFD9F800300233C9F80030256815F0060510D104F189
:40138000190A07E00123524639463046C04701301AD00135E368D9F800209B1A9D42F1DB94F843302268003318BF012392060FD5E118302081F843005A1C94F84510224489
:4013C000023382F8431003E04FF0FF30BDE8F08704F1430239463046C0470130F4D02268D9F80050E36802F00602042A08BF5D1B2269A3680CBF25EAE57500259342C4BFAF
:401400009B1AED184FF000091A344D4509D00123224639463046C0470130D5D009F10109F3E70020BDE8F0872DE9F04317460A7E85B06E2A984606460C460C9B01F1430E18
:4014400000F0AE8011D8632A22D009D8002A00F0BB80582A40F0CA8081F84520834955E0642A1ED0692A1CD0C0E0732A00F0B08009D86F2A2ED0702A40F0B8800A6842F05F
:4014800020020A603EE0752A24D0782A3AD0ADE01A6801F14205111D1960136884F84230A8E021681A6811F0800F02D0111D196008E011F0400F02F10401196002D0B2F929
:4014C000003000E01368002B3CDA2D225B4284F8432037E021681A6811F0800F02D0111D196007E011F0400F02F10401196001D0138800E01368227E5C496F2A14BF0A22DE
:4015000008221BE078225A4984F845202268186812F0800F00F104051D6003D1550601D5038800E00368D00744BF42F0200222601BB9226822F0200222601022002084F8E9
:40154000430001E049490A226568002DA56008DB206820F0040020602BB9002D7DD175460CE0002B79D07546B3FBF2F002FB1033CB5C05F8013D03460028F5D1082A0BD1DF
:401580002368DA0708D5236962689A42DEBF302305F8013C05F1FF35C5EB0E0323612EE008681A6810F0800F496903D0101D1860136808E010F0400F02F1040018601368C2
:4015C00001D0198000E0196000232361754616E01A68111D1960156800216268284600F049F808B1401B6060636804E004F1420584F8422001232361002384F84330CDF884
:4016000000803B4603AA21463046FFF797FE013002D14FF0FF3026E023692A4639463046C0470130F5D023689B0710D5002504F1190907E001234A4639463046C047013018
:40164000E7D00135E368039A9B1A9D42F2DBE068039B9842B8BF184605E00B7804F1420584F842308AE705B0BDE8F083051900001619000010B5C9B202449042034605D00C
:401680001C7801308C42F8D1184610BD002010BD884210B501EB020301D8421E0BE09842FBD28118D21AD34204D013F8014D01F8014DF8E710BD994204D011F8014B02F8B3
:4016C000014FF8E710BD000038B50546002944D051F8043C0C1F002BB8BFE41800F0D4F81E4A1368114613B96360146030E0A3420DD92268A018834201BF18685B6812181F
:40170000226063600C6023E0A24203D813465A68002AF9D118681918A1420BD12168014458188242196013D110685268014419605A600DE002D90C232B6009E02168601842
:40174000824201BF106852680918216062605C602846BDE8384000F098B838BD5C82FF1F70B5CD1C25F0030508350C2D38BF0C25002D064601DBA94202D90C23336046E00B
:4017800000F082F8234B1C681A462146A1B10B685B1B0ED40B2B03D90B60CC18CD501EE08C420BBF63684B681360636018BF0C4615E00C464968E9E7174C23681BB93046F8
:4017C00000F052F820602946304600F04DF8431C18D0C41C24F00304A0420DD12560304600F053F804F10B00231D20F00700C31A0ED05A42E25070BD211A304600F034F803
:401800000130EBD10C233360304600F03EF8002070BD00BF5C82FF1F5882FF1FF8B5074615460E4621B91146BDE8F840FFF798BF1AB9FFF749FF2846F8BD00F027F885424F
:401840000ED929463846FFF78BFF044650B131462A46FFF7DFFB31463846FFF735FF01E03046F8BD2046F8BD38B5064C0023054608462360FEF7A6FD431C02D1236803B145
:401880002B6038BD6482FF1F7047704751F8040C0028BEBF091851F8043CC018043870470000000044697374616E63653A20256420636D200D0A000000510040100040515C
:4018C00000403000F0510040100000000140001000140140000800400140000A004C0140000200500140200060520040C406004806004300232D302B2000686C4C0065666B
:4019000067454647003031323334353637383941424344454600303132333435363738396162636465660000F8B500BFF8BC08BC9E4670474D00000041040000F8B500BFED
:40194000F8BC08BC9E4670472900000060190000C880FF1F700000003001000000000000000000006882FF1F000000000000000000000000000000000000000000000000A3
:401980000000000000000000F2180000000000000000000000000000000000000000000000000000000000000000000000000000000000000000000000000000000000001D
:4019C0000000000000000000D080FF1F0000000000000000000000000000000000000000000000000000000000000000000000000000000000000000000000000000000079
:401A000000000000000000000000000000000000000000000000000000000000000000000000000000000000000000000000000000000000000000000000000000000000A6
:401A40000000000000000000000000000000000000000000000000000000000000000000000000000000000000000000000000000000000000000000000000000000000066
:401A80000000000000000000000000000000000000000000000000000000000000000000000000000000000000000000000000000000000000000000000000000000000026
:401AC00000000000000000000000000000000000000000000000000000000000000000000000000000000000000000000000000000000000000000000000000000000000E6
:020000040003F7
:0200000480007A
:400000000152004001640040046500403F08014031090140621401404B150140591601403B170140621801404D190140541A0140551B0140034001400241014002420140F2
:4000400002430140044801400A490140094D0140055001400151014018808972860F870D8A388B0F03030A010B020D0C0E01110815031B03210C27042B012D01330C340146
:40008000350339083E103F04580459045F018108840D850C8602880D89048A028D029111940C9503991F9A029BA09C0F9F10A008A1FFA404A5F3A70CA803A99CAA0CAB431B
:4000C000AFE3B001B18CB20EB30FB57CBA08BBA8BE01D602D713D804D904DB04DC11DD10DF01001802100480052008400A140B011080120C1308181019011A201C04200803
:400100002141220823052510271028402A942C042D802F5030023188321034083510360138683A023DA03E01590169146A807094721273088A84C0C6C207C40ECAFFCCEFC9
:40014000CEBFD601021C050F060B07200A2F0B180C060F0F122F1501164017021C031D071E101F10202F2102230126402A052B0F2F04301F324033203420351F3A023B20D4
:400180003E1440324105420649FF4AFF4BFF4F015018580459045A045F016040624064406540668068806A806C806E808003820C8301840F8A0F8C058E0A8F01920F9C0F00
:4001C0009F02A301A405A60AA803AA0CB20FB301B502BF04C032C101C206C5ECC620C80BC9FFCAFFCBFFCD83CE03CF01D018D804D904DA04DF01E040E240E440E540E6808F
:40020000E880EA80EC80EE80002801C20204030804080581060409800BD00D800F4010101112140415101708191B1B101E202028211023082404250829812B082F40300485
:4002400031803740380839203B803D803E02410843204598480149104F255510562057208004810184108980915093909404970598109A029B409D089E20A001A1C0A5010F
:40028000A610A708A920B101C0FFC29DC46ECA8DCC1ACE9ED076D22CE008E221EE01020703010404060807040B040C1F0F0618071A101C011D031E08220F2307260F280264
:4002C00029012A082F0331043418360737033F014060410249FF4AFF4BFF4DA04F045018529354035604580459045A045B045D025F05604062C06440654066C068C06AC080
:400300006CC06EC097029B069C01A601AB01B104B301B601B702C030C106C5D1C702C813C9FFCAFFCBFFCDAFCE0FCF04D018D405D804D904DA04DB04DC22DD22DF01E040B4
:40034000E2C0E440E540E6C0E8C0EAC0ECC0EEC0062007420A020E0510201618170119401E051F40201221802289231224402540281029202A042E822F083020320836800F
:400380003C043D833E2840104604482849014E085008520459495C405E205F0565026D5076C277417E808542865088018E02C0B0C2C1C474CAB4CC16CEF0D022D224D6FB95
:4003C000D880DE80E008000C02110410070808200D030F04110A1203130414141C1C1D031E021F0C20102103220C2304270528092A102D10301F33103420370F3B803E100E
:400400003F044043410546BC470E481C49FF4AFF4BFF4EF04F44500C5280580459045A045B045C115D215F0166C06A406B028302851C891C8A018D108F089120950897149A
:400440009B029C019D20A320A540A601A801A904AB09B102B31CB401B560B701B820B920BF01C002C504C9FFCA07CBFFCC40CD20CEF0CF05D008D804D904DA04DC11DD0104
:40048000DF01E040E1A8E240E320001004020508060408400E420F20120813041520170119201E48200821982201242025402680270129012A202B202E402F603128328239
:4004C00035013681384039163C083F8043104610470149084A124BC04C014F40521053305604575058025A027740860188088D10901491169280930494C0960597A09840C7
:400500009B149C0C9DB0A208A402A5C8A601B540B704C072C2B1C456CAD7CC9FCE5FD0C4D210E0C007030B030C020D020E0510101101150316081903241327032813290361
:400540002C012E06300331033410360C3E40406241034204440146CE480C49FF4AFF4BFF4C624DA04EF04F41500C54185604580459045A045B045C115D115F0166406702B0
:4005800069106A306B106D106E106F12800C8203860391019201930696049B0C9C019D0C9E069F03A001A101A20AA30EA703AA0CAB08B001B10FB60EBA80BB02BE01D40199
:4005C000D804D904DB04DC11DD10DF01004006100740080809080A800C080D020E210F80100211141520171118411A041B101E411F4022012601274028082B102C082F50BD
:4006000030123208375138503B044001410142044304441047044A08504051205A025E485F216006620282028404880289028A208B208E048F01901491369280932494C081
:400640009604978098029A149B059C049E20A108A21CA340A402A520A601AB40B180B410C031C2BCC457CAE6CCB7CE0ED00FD204D6F1D80DEC8033803780CC309F80A78035
:400680009F80A7809F80A78087809F80A780E61009805F02818083808B029F80C240D680E280E4801080750188809901B501C408DE04E601EC0200030C0310071A051C0668
:4006C000000F00008080000040000000800040808000800000000000000B0B0000000000000202000000000040808000800000000000000000000000000000000000000091
:4007000000000000000000000000000000000000000000000000000000000000000000000000000000000000000000000000000000000000000000000000000000000000B9
:400740000000000000000000000000000000000000000000000000000000000000000000000000000000000000000000000000000000000000000000000000000000000079
:400780000000000000000000000000000000000000000000000000000000000000000000000000000000000000000000000000000000000000000000000000000000000039
:4007C00000000000000000000000000000000000000000000000000000000000000000000000000000000000000000000000000000000000000000000000000000000000F9
:0200000490006A
:0400000000004005B7
:0200000490105A
:04000000BC90ACAF55
:0200000490303A
:02000000B950F5
:0200000490402A
:4000000000000000000000000000000000000000000000000000000000000000000000000000000000000000000000000000000000000000000000000000000000000000C0
:400040000000000000000000000000000000000000000000000000000000000000000000000000000000000000000000000000000000000000000000000000000000000080
:400080000000000000000000000000000000000000000000000000000000000000000000000000000000000000000000000000000000000000000000000000000000000040
:4000C0000000000000000000000000000000000000000000000000000000000000000000000000000000000000000000000000000000000000000000000000000000000000
:0200000490501A
:0C00000000012E16106900012E21C9B964
:00000001FF